S02A000042524434313636415F5442325F6472697665725F4D454D535F4D6963726F70686F6E652E733337CA
S113000000000420C1010000ED010000ED0100002A
S1130010ED010000ED010000ED010000ED01000024
S1130020ED010000ED010000ED010000ED01000014
S1130030ED010000EC010000ED010000ED01000005
S1130040ED010000ED010000ED010000ED010000F4
S1130050ED010000ED010000ED010000ED010000E4
S1130060ED010000BD030000ED010000ED01000002
S1130070ED010000ED010000ED010000ED010000C4
S1130080ED010000ED010000ED010000ED010000B4
S1130090ED010000ED010000ED010000ED010000A4
S11300A0ED010000ED010000ED010000ED01000094
S11300B0ED010000ED010000ED010000ED01000084
S11300C0ED010000ED010000ED010000ED01000074
S11300D0ED010000ED010000ED010000ED01000064
S11300E0ED010000ED010000ED010000ED01000054
S11300F0ED010000ED010000ED010000ED01000044
S1130100ED010000ED010000ED01000010B5054C0B
S1130110237833B9044B13B10448AFF300800123AF
S1130120237010BDDC000020000000001C0E000045
S113013008B5034B1BB103490348AFF3008008BD66
S113014000000000E00000201C0E0000154B002BF6
S113015008BF134B9D46A3F5803A00218B460F46FA
S11301601348144A121A00F027FE0F4B002B00D03C
S113017098470E4B002B00D0984700200021040024
S11301800D000D48002802D00C48AFF3008000F0A9
S1130190EFFD2000290000F07FFC00F0D5FD00BF3A
S11301A0000008000000042000000000000000001F
S11301B0DC0000209C110020000000000000000072
S11301C0064880470649074A074B9A42BEBF51F882
S11301D0040B42F8040BF8E7FFF7B8FF71020000C4
S11301E0280E000000000020DC000020FEE700BF15
S11301F00F4BD3F8943003F00703032B14D0042BD4
S11302000FD0022B0AD00B4B1868094BD3F80031DE
S1130210C3F304230133B0FBF3F07047064B1868B3
S1130220F3E7064B1868F0E74FF40040EDE700BF32
S113023000400E4008000020040000200C000020B4
S113024008B5FFF7D5FF054B054AD3F80831C3F3CA
S113025008230133B0FBF3F0106008BD00400E40EA
S113026000000020014B1868704700BF0400002004
S1130270044B054A9A60D3F8882042F47002C3F80C
S11302808820704700ED00E0000000004FF40040BB
S1130290704700BF4FF47A70704700BF014B186875
S11302A0704700BF0C00002038B5114B1B7883B198
S11302B088B1054600F07EFA0E4900220B461C7BED
S11302C0103354B10132082AF9D100F077FA0A4800
S11302D038BD0A4838BD0A4838BD13012A60CA1817
S11302E00125CC50157300F069FA204638BD00BFD3
S11302F078010020F8000020048000F0028000F063
S1130300018000F010B5174A82B0002312680192F0
S11303108DF8043000F04EFA134B1C78E4B9012236
S11303201A7000F04BFA114B04220DEB02001C73FF
S11303301C7783F82C4083F83C4083F84C4083F8C6
S11303405C4083F86C4083F87C408DF8072000F013
S113035081FA204602B010BD00F030FA044802B021
S113036010BD00BFE40D000078010020F80000205B
S1130370038000F0F8B50C4C25788DB107280DDC0E
S11303800A4F04013E19357B65B13B51069B00259C
S1130390C6E9013500F08AFA2846F8BD0448F8BDDC
S11303A00448F8BD0448F8BD78010020F800002096
S11303B0018000F0028000F0078000F02DE9F04198
S11303C00F4D2A6EE96E12EA010818D40D4C01276C
S11303D0002618EA070F304606F1010607D0236805
S11303E0AF6623B1D4E901210131A1609847082EF9
S11303F04FEA470704F11004EBD1BDE8F081FEE7B2
S113040000200E40F8000020C0F30323013B30B469
S1130410092B0CD8DFE803F00D110B0B152D190B6C
S11304202705164CC0F3043020448000016030BC22
S11304307047C0F30430124CF6E7C0F30430114C9B
S1130440F2E7C0F30430104CEEE7104CC0F3043074
S113045010250F4BD3F84421D207E5D4D3F840211B
S11304602A42FBD1E0E7C0F304300A4C4FF4803554
S1130470EFE7C0F30430084C0125EAE7800AF210E4
S11304800000F2100006F2108005F2104007F2108E
S113049000400E408007F2100007F21000F00F0039
S11304A00138072847D8DFE800F0121D3346283EFC
S11304B04604264BD3F85C3103F03003202B40D0A4
S11304C0302B40D0102B0CBF0720012070471F4B4E
S11304D0D3F8943003F00703023B052B2FD81C4AB2
S11304E0D05C7047194BD3F8803003F00703013B0D
S11304F0032B22D8174AD05C7047144BD3F88830AA
S113050003F00703013B032B17D8134AD05C704751
S11305100E4BD3F8843003F00703013B032B0CD8B4
S11305200E4AD05C7047094B1B6F13F0010F14BFC8
S113053009200720704700207047012070470520DC
S11305407047042070470820704700BF00400E40E9
S1130550E80D0000F00D0000F00D0000F40D0000A7
S113056008B50146FFF79AFF1E4B99422FD01E4B48
S1130570994226D01D4B99421DD00138032803D837
S1130580DFE800F01511042B002008BDFFF758FE2A
S1130590174BD3F80031C3F300635A1C0123934073
S11305A0B0FBF3F008BDBDE80840FFF777BEBDE837
S11305B00840FFF76BBE0E4BD3F8800000F0070035
S11305C0DBE70B4BD3F8880000F00700D5E7084BB6
S11305D0D3F8840000F00700CFE7BDE80840FFF738
S11305E059BE00BF030020000500240002001E00C5
S11305F000400E4000F47810B0F5A01F08B500F0DC
S113060098801BD9B0F5001F33D054D9B0F5381FEA
S113061034D066D9B0F5401F6BD0B0F5481F1AD15D
S11306205B48FFF73BFF072842D0082800F0A5806D
S1130630042810D1BDE80840FFF714BEB0F5202F00
S113064013D00AD9B0F5602F2DD0B0F5801F2FD06C
S1130650B0F5402F1CD0002008BDB0F5003F7DD080
S1130660B0F5802F6FD00028F5D1BDE80840FFF722
S1130670BFBD4848BDE80840FFF772BF4648FFF7D2
S11306806FFF464BD3F82031C3F30113D84008BDA4
S1130690FFF7AEFD414BD3F81431C3F30423013308
S11306A0B0FBF3F008BD3E48FFF7F8FE072860D121
S11306B03C4B186808BDB0F5D01F2DD0B0F5F01F25
S11306C025D0B0F5B01FC6D13348FFF749FF334BEF
S11306D0D3F82021012302F00F029340B0FBF3F082
S11306E008BDB0F5101FB6D12F48BDE80840FFF78C
S11306F037BF2848FFF734FF284BD3F82831C3F31A
S113070001231A1D01239340B0FBF3F008BD2248D6
S1130710BDE80840FFF724BF1E48FFF721FF1F4B29
S1130720D3F828210123C2F301129340B0FBF3F064
S113073008BD1D48FFF714FF184BD3F8303103F000
S11307400303D84008BDFFF753FD144BD3F80C3115
S1130750C3F308230133B0FBF3F008BDFFF748FDF2
S11307600E4BD3F80831C3F308230133B0FBF3F085
S113077008BD09287FF46FAF77E7FFF739FD074B12
S1130780D3F80031C3F3042303FB000008BD00BF0A
S1130790B80032000300200002001E0000400E409A
S11307A006000E00100000200500240000B962B607
S11307B0704700BFEFF3108072B67047FFF7F6BFC3
S11307C0F0B444004AB12718214D3F0101263D44AD
S11307D08E40A3B305F1C0652E6025182D0105F1E7
S11307E08045072905F5204519D88F006E684FF01C
S11307F00F0C0CFA07FC26EA0C0602FA07F73E4334
S11308006E6052B90444124A24010120224400FAC1
S113081001F1C3B902F180621160F0BC704701F1CB
S11308208046083EAF68B6004FF00F0C0CFA06FC89
S113083027EA0C0702FA06F63E43AE60E1E705F14B
S113084080652E60C9E702F1C062F0BC1160704798
S11308500CA0004038B5044601211148FFF7D4FD2F
S1130860B4F8013020780F4A0F495BBA9BB243EACF
S11308700063002013604FF0004510624FF0FF3317
S1130880D06250634FF40070D5669366C1F880015E
S1130890E3785B01DBB281F80933086038BD00BF3F
S11308A000550A0000200E4000E100E0F8B5CB7AC4
S11308B08E7A0D7B234F1B050C4643EA064300EB5F
S11308C0400607EB061643EA4553C0B20125497BAF
S11308D022F0030285402068C6F88000C6F888101C
S11308E0C6F88430C6F89820BD66FFF763FFFB6E38
S11308F0227A2B43FB6612B17B6B2B437B63637AB7
S11309001BB1104AD36A2B43D3620E4B22791B6866
S113091022B1D243120262F47F42134062790AB1D7
S113092043EA0223A2790AB123EA0203E27902B17B
S11309301343044A044913600D60D563BDE8F840CD
S1130940FFF73CBF00200E4028200E44164A1749EA
S1130950002330B4904240F6AA6541F20504C56014
S11309600360446083604361C364816403664367D6
S11309708367C36714D002F5806290420AD002F5FF
S1130980806290420CD002F58062904202D083656E
S113099030BC7047036583650023C36530BC704772
S11309A000230365F3E700BF00000140F9FF0100E5
S11309B070B50C460546FFF7C9FF228AA07B2B6859
S11309C0217D42F00102002843EA02030CBF002209
S11309D04FF4806213432B602B6809B143F000533A
S11309E0A27C2B601AB1E37C43F08003AB65237BCC
S11309F0D4E9010643F480536B60E0B1637B0138B2
S1130A007600B0FBF6F0000268610BB11023EB60D6
S1130A10637D1BB12B6843F480332B60A37DE27D9F
S1130A2021781B07120503F0E04302F4E0021343AC
S1130A302B66E96070BD0248FFF7DCFDDEE700BF0E
S1130A4040410500F8B50C4600230E780B700546AE
S1130A50FFF7AEFF227FA77E238BE07E617F1343E7
S1130A60002F43F0010314BF10220022002842EAA1
S1130A70030214BF08230023002943EA020314BF1E
S1130A80022200221343EB652EB1F3435B0003F013
S1130A900A03EB60EE60F8BD164A08B50121164B57
S1130AA05164DB6C1B0E22D1144915484AF6E852F6
S1130AB00A60026842F0040202600B60114A136883
S1130AC043F40053136010480A4A036A0F4923F49D
S1130AD0441343F488130362136843F4807313606C
S1130AE04FF4FA504FF4006200F074F8FEE7012B63
S1130AF0E9D1E3E700000E40B081E00F90310E40F1
S1130B0098310E4064310E4000400E407C010020BC
S1130B102A4A1378002B45D1F0B403F0FF04284F80
S1130B20284B294E18683D6811F0010F06F1100397
S1130B3018BF3346854218D22449DE78096864F325
S1130B40051601EB4504411BB1F5006F9C60DE7096
S1130B502AD8411E4D1B1988386065F30E1119807F
S1130B60002313700120F0BC7047D9781888184C02
S1130B709C6040F2FF7441F0300164F30E10D970B0
S1130B801880F37803F03003302BEBD1F37C03F0BF
S1130B903003302B08BF01234FF0010008BF13704E
S1130BA0F0BC704701207047198840F2FF7005F5CA
S1130BB0006560F30E113D601980D1E78C110020AF
S1130BC094110020901100201400002084110020B2
S1130BD0981100202DE9F0434B4DDFF860C1DFF898
S1130BE060910646884617460FCD8BB002AC0FC401
S1130BF095E80F004FF4806584E80F00CCF80050AE
S1130C0001214248424CFFF7FFFB01214148FFF715
S1130C10FBFB0023012207210220FFF7D1FD002363
S1130C20042208210220FFF7CBFD0023042209211E
S1130C300220FFF7C5FD0125052220464FF440732D
S1130C4002A9B6018DF80820ADF8203004968DF87D
S1130C501C508DF82350FFF7F5FE2F4BA3670D238F
S1130C606367FFF74FFB48460021FFF71DFB04466F
S1130C7018B120460BB0BDE8F083284E014630463B
S1130C80FFF712FB04460028F3D1DFF8B8C0306840
S1130C909CF803209CF81330009465F3830265F3F9
S1130CA08303D2B242F03006DBB243F030018CF859
S1130CB003601B4E8CF81310624623461949FFF754
S1130CC059FBF278F37CD9F80000009465F38302B1
S1130CD065F38303D2B2DBB242F0300C43F030054B
S1130CE03246114B114986F803C0F574FFF742FBF5
S1130CF00F49104A104B0C702046C2F800801F6048
S1130D000BB0BDE8F08300BFF80D000000350A0009
S1130D1000040140005204000B000B0B8011002062
S1130D201400002064000020110B00005400002077
S1130D308C1100208411002088110020FCA00046A2
S1130D407C1100203400002008B5074B044613B181
S1130D500021AFF30080054B1868836A03B19847FC
S1130D60204600F031F800BF00000000180E00001B
S1130D7070B50D4E0D4CA41BA4100025A54209D13D
S1130D800B4E0C4C00F022F8A41BA4100025A54225
S1130D9005D170BD56F8253098470135EEE756F871
S1130DA0253098470135F2E7D4000020D400002014
S1130DB0D4000020D800002002440346934200D10E
S1130DC0704703F8011BF9E7FEE700BFF8B500BF61
S1130DD0F8BC08BC9E467047F8B500BFF8BC08BC18
S1130DE09E467047070000030403020B050C000035
S1130DF00302010A0302060A0400000000000000C6
S1130E0040420F000D01010000000000000000003E
S1130E100005010000000000740000200000000034
S10B0E202CF3FF7F0100000028
S1130E28C0EA210100F04902C0EA21010080000063
S1130E38C0EA2101E07F1003240401409811002036
S1130E4813000000E07F10032404014098110020DF
S1130E58F3FFFFFFE07F1003240401409A110020F0
S1130E6813000000E07F1003240401409A110020BD
S1130E78F3FFFFFF00000D00000000000000000069
S1130E880000000003000D00000000000000000046
S1130E980000000000000000000000000000000046
S1130EA80000000000000000000000000000000036
S1130EB80000000000000000000000000000000026
S1130EC80000000000000000000000000000000016
S1130ED80000000000000000000000000000000006
S1130EE800000000000000000000000000000000F6
S10F0EF800000000310100000D010000AA
S90301C13A
