S02A000042524434333036415F6D69637269756D6F735F6D657373616765515F6578616D706C652E733337CD
S2140000000000012045060000710600007106000091
S21400001071060000710600007106000071060000FF
S21400002071060000710600007106000071060000EF
S2140000307106000070060000EBB6000035BA00003E
S21400004071060000710600007106000071060000CF
S21400005071060000710600007106000071060000BF
S21400006071060000710600007106000071060000AF
S214000070E509000071060000710600007106000028
S214000080710600007106000071060000710600008F
S214000090710600007106000071060000710600007F
S2140000A0710600007106000071060000710600006F
S2140000B0710600007106000071060000A114000021
S2140000C0710600007106000071060000710600004F
S2140000D0710600007106000071060000710600003F
S2140000E0710600007106000071060000710600002F
S2140000F071060000710600007106000010B5054C80
S214000100237833B9044B13B10448AFF300800123BE
S214000110237010BD5001002000000000DCFF00002E
S21400012008B5034B1BB103490348AFF3008008BD75
S2140001300000000054010020DCFF0000154B002BDF
S21400014008BF134B9D46A3F5803A00218B460F4609
S2140001501348144A121A0BF03DFF0F4B002B00D029
S21400016098470E4B002B00D0984700200021040033
S2140001700D000D48002802D00C48AFF300800BF0AD
S21400018005FF200029000BF069FC0BF0EBFE00BF1A
S2140001900000080000000120000000000000000031
S2140001A050010020CC3B00200000000000000000B2
S2140001B080B582B000AF03463960FB71FB79002B37
S2140001C01DD0FB79012B17D0FB79022B11D0FB79C0
S2140001D0032B0BD0FB79042B06D0FB79052B01D122
S2140001E0FF230DE000230BE0002309E04FF47E43DD
S2140001F006E04FF47C6303E04FF4784300E03F23CF
S2140002003A68134103F00103002B04D140F2274162
S2140002100A4802F009FD01223B6802FA03F3084986
S214000220FA79184613465B0013441B010B44183337
S214000230186000BF0837BD4680BD00BF50C700002D
S21400024000A0004080B582B000AF0121104802F047
S214000250B9FF01210F4802F0B5FF00237B600FE0D5
S2140002600D4A7B6812F833000B4A7B68DB001344A8
S21400027059680123042204F0C3FF7B6801337B60C6
S2140002807B68012BECDD002318460837BD4680BD91
S2140002904041050000350A00B4C7000080B582B0B2
S2140002A000AF78607B68002B10DB7B68012B0DDCD1
S2140002B0094A7B6812F83300074A7B68DB00134460
S2140002C05B681946FFF774FF002301E04FF0FF3329
S2140002D018460837BD4680BDB4C7000080B582B05A
S2140002E000AF00F0C7F978600A4B1B68094A43F074
S2140002F080731360084B00221A60084B1B68074A7D
S21400030043F001031360786802F072FC00BF083700
S214000310BD4680BDFCED00E0041000E0001000E0EB
S21400032080B483B000AF054B1B687B607B681846C3
S2140003300C37BD465DF8047B704700BF041000E034
S21400034080B582B000AF124B01225A64104B1B6876
S2140003500F4A43F4807313603B1D184605F084F87B
S2140003607B79012B02D83B79022B0CD9094B4FF431
S21400037018721A60084B094A1A60094B094A1A6033
S214000380094B0A4A1A6000BF0837BD4680BD00BF49
S21400039000000E408C420E4090420E409A6F0500C0
S2140003A0F0420E4018010004F8420E400084320865
S2140003B080B582B000AF11237B60FFF7C1FF08480D
S2140003C004F07CFB0521786803F078F9002201210F
S2140003D0012003F037FB00BF0837BD4680BD00BFD5
S2140003E0C4C7000080B582B000AFFFF72BFF00F057
S2140003F041F97860786802F0FBFB00BF0837BD461D
S21400040080BD80B500AF00F003F800BF80BD0000DF
S214000410F0B583B000AF194B1B68B3F57A7F00D0F8
S214000420FEE700F057FD03F07FFD7860144B1B6875
S214000430B3F1FF3F03D0786803F086FD1BE0104859
S21400044000F0F4FC3860786803F07EFD4FF0FF3073
S21400045000F0C6FF05460E46012000F0C1FF0A4622
S21400046001464B1942EB0604064AC2E900343B68D3
S214000470002B00D0FEE70C37BD46F0BD640200201E
S214000480000000208801002080B582B000AF00F098
S2140004907FF878607B6818460837BD4680BD000048
S2140004A080B58AB002AF78600023FB610023BB6191
S2140004B07B68B3F1FF3F09D07B68002B06D0204B4A
S2140004C01B687A68D31A7B607B68FB61FB69002B2C
S2140004D030D0FFF79DFF00F05BF87861194B1B6882
S2140004E07A69D31A3B61FA693B699A4202D20023C1
S2140004F0FB6103E0FA693B69D31AFB61124B1B6888
S214000500184600F0EFFEF860FB68002B01D002F002
S2140005106BFB0D4B1868002300930C4BFA69002107
S21400052000F042FDF860FB68002B01D002F05CFB97
S2140005307B68BB61BB6918462037BD4680BD00BFDF
S214000540C03B00206C010020000000205105000088
S21400055080B584B000AF786039600B4B1B687A6852
S2140005609A420DD100F014F8F860084B1B68FA6840
S214000570D31ABB60054AFB681360B8680AF086FEAB
S21400058000BF1037BD4680BD000000206C01002073
S21400059090B587B000AF00F0E9FEC7E90401244B30
S2140005A0D3E90034D7E90412A24208BF994202D127
S2140005B0204B1B6838E01E4BD3E90034D7E9041201
S2140005C0A24208BF994209D2194BD3E900341A4A0D
S2140005D0C2E90034174B1B68184A1360144AD7E95F
S2140005E00434C2E90034144BD3E90034D7E90412CA
S2140005F0C91A62EB040208461146114BD3E90034CF
S2140006001A4623460BF02EFB1C461346C7E9023457
S214000610D7E9020100F005FF03460C461A46074BD1
S2140006201B6813447B607B6818461C37BD4690BD2C
S214000630700100206C01002080010020780100205D
S21400064088010020064880470649074A074B9A4219
S214000650BEBF51F8040B42F8040BF8E7FFF76EFD37
S21400066051070000E8FF00000000002050010020B5
S214000670FEE700BF80B582B000AF00F025F87860D6
S2140006800A4BD3F808311B0AC3F308033B603B68E8
S21400069001337A68B2FBF3F37B60054A7B6813602C
S2140006A07B6818460837BD4680BD00BF00400E4038
S2140006B00C00002080B400AF024B1846BD465DF823
S2140006C0047B704700F0490280B483B000AF164B3D
S2140006D0D3F8943003F00703032B08D0042B02D082
S2140006E0022B08D00BE0114B1B687B600BE04FF42D
S2140006F000437B6007E00E4B1B687B6003E00D4BFE
S2140007001B687B6000BF084BD3F800311B0A03F060
S2140007101F0301337A68B2FBF3F318460C37BD4665
S2140007205DF8047B704700BF00400E4008000020C4
S214000730040000201000002080B400AF034B1B68AC
S2140007401846BD465DF8047B704700BF04000020D5
S21400075080B400AF074B084A9A60064BD3F888303F
S214000760044A43F47003C2F8883000BFBD465DF803
S214000770047B704700ED00E00000000080B400AF8E
S2140007804FF400431846BD465DF8047B704780B4BE
S21400079000AF4FF47A731846BD465DF8047B704789
S2140007A080B400AF034B1B681846BD465DF8047B5B
S2140007B0704700BF0800002080B483B000AF7860A8
S2140007C0002318460C37BD465DF8047B704780B49E
S2140007D083B000AF7860FEE780B483B000AF786087
S2140007E039603B684FF400525A60002318460C37B5
S2140007F0BD465DF8047B704780B485B000AFF860F6
S214000800B9607A60002318461437BD465DF8047B4D
S214000810704780B586B000AFF860B9607A60002394
S2140008207B610FE000F096F938613B69B3F1FF3F5A
S2140008300ED0BB685A1CBA603A69D2B21A707B698D
S21400084001337B617B685A1E7A60002BEAD100E098
S21400085000BF7B69002B02DC4FF0FF3300E07B69B2
S21400086018461837BD4680BD80B485B000AF7860A6
S2140008700B4B1B68002B02D1094B0A4A1A60084B27
S2140008801B68FB60064B1A687B681344044A1360B7
S214000890FB6818461437BD465DF8047B704700BFFA
S2140008A090010020D03B002080B586B000AFF860F5
S2140008B0B9607A6000237B6109E0BB685A1CBA60A5
S2140008C01B78184600F086F97B6901337B617A69EC
S2140008D07B689A42F1DB7B6818461837BD4680BDB8
S2140008E080B483B000AF0346FB7197F90730002B46
S2140008F00BDBFB7903F01F02074997F907305B090A
S214000900012000FA02F241F8232000BF0C37BD4652
S2140009105DF8047B704700BF00E100E080B483B060
S21400092000AF0346FB7197F90730002B0CDBFB7911
S21400093003F01F02074997F907305B09012000FA08
S21400094002F2603341F8232000BF0C37BD465DF845
S214000950047B704700E100E080B483B000AF7860AD
S21400096039607B683A689A6400BF0C37BD465DF80C
S214000970047B704780B483B000AF786039607B68D2
S214000980DA6C3B68DB431A407B68DA6400BF0C37DE
S214000990BD465DF8047B704780B483B000AF7860D6
S2140009A039607B68DA6C3B681A437B68DA6400BFA0
S2140009B00C37BD465DF8047B7047000080B500AF7D
S2140009C004210248FFF7D6FF00BF80BD00000140AB
S2140009D080B500AF04210248FFF7DEFF00BF80BDF0
S2140009E00000014098B500AF144B1B6903F080036C
S2140009F0002B20D0124B1B68072B1ADC114B1C68EF
S214000A000E4804F02FFF03461A460F4B1A550D4B9F
S214000A101B6801330B4A1360094B1B680133084AF5
S214000A201360084B1B68082B05D1064B00221A6082
S214000A3001E0FFF7C3FF00BF98BD00BF0000014004
S214000A409C01002098010020A001002080B483B003
S214000A5000AF78607B68002B03D0064B01221A702B
S214000A6002E0044B00221A7000BF0C37BD465DF84A
S214000A70047B7047A8010020B0B588B000AF012104
S214000A802D4802F09FFB01212C4802F09BFB01231E
S214000A9004220021002004F0B3FB012302220121DE
S214000AA0002004F0ADFB264BFB61264B3C461D4662
S214000AB00FCD0FC495E8070084E807000123042241
S214000AC00521002004F09CFB01211F4802F07AFB60
S214000AD000233B703B461946F86904F0EDFDFB69C0
S214000AE003225A67FB699B6F23F4F85323F01F0316
S214000AF0FA69936704211248FFF72EFF0C20FFF7D0
S214000B000DFF04210E48FFF747FF0C20FFF7E8FE15
S214000B100521F86904F09EFD0C4B1B6898680023BD
S214000B20022200210BF05EFA094B01221A7000BF68
S214000B302037BD46B0BD00BF4041050000350A0065
S214000B4000000140D4C7000000320400E40000208A
S214000B50A901002080B582B000AF4FF0FF337B6064
S214000B60184B1B7883F00103DBB2002B01D0FFF794
S214000B7083FF03F0F7F93860134B1B68002B18DD72
S214000B80124B1B68124AD35CDBB27B600F4B1B68B0
S214000B9001330E4A13600D4B1B68082B02D10B4B1A
S214000BA000221A60084B1B68013B074A1360FFF7D8
S214000BB00FFF386803F0E6F97B6818460837BD462D
S214000BC080BD00BFA90100209C01002094010020E8
S214000BD0A001002080B582B000AF0346FB710F4B2A
S214000BE01B7883F00103DBB2002B01D0FFF744FF34
S214000BF00B4B1B78002B06D0FB790A2B03D10D215B
S214000C00084804F043FEFB791946064804F03EFE09
S214000C10FB7918460837BD4680BD00BFA9010020F5
S214000C20A80100200000014080B483B000AF034656
S214000C30FB7197F90730002B0BDBFB7903F01F02E3
S214000C40074997F907305B09012000FA02F241F8DC
S214000C50232000BF0C37BD465DF8047B704700BFFD
S214000C6000E100E080B483B000AF0346FB7197F963
S214000C700730002B0CDBFB7903F01F02074997F9BE
S214000C8007305B09012000FA02F2603341F82320A6
S214000C9000BF0C37BD465DF8047B704700E100E0FE
S214000CA080B584B000AF78607B68002B03D07B688B
S214000CB0B3F5004F04D940F69921074801F0B4FF78
S214000CC07B68B3FA83F3DBB2C3F11F03FB60FB68F8
S214000CD018461037BD4680BDF0C7000080B582B00C
S214000CE000AF78607B68022B04D940F29711074862
S214000CF001F09AFF064A7B6804331B011344043351
S214000D001B6818460837BD4680BD00BF54C80000A3
S214000D100020044080B582B000AF786039607B6800
S214000D20022B04D940F2AB11074801F07DFF074AB9
S214000D307B6804331B01134404333A681A6000BF0F
S214000D400837BD4680BD00BF54C8000000200440E0
S214000D5080B582B000AF78607868FFF7BFFF0346C3
S214000D6018460837BD4680BD80B582B000AF7860B3
S214000D70396039687868FFF7CDFF00BF0837BD4691
S214000D8080BD000080B400AF034B9B681846BD468C
S214000D905DF8047B704700BF0020044080B483B039
S214000DA000AF7860044A7B68136200BF0C37BD460C
S214000DB05DF8047B704700BF0020044080B483B019
S214000DC000AF7860064B5A6A7B68DB4304491340E1
S214000DD04B6200BF0C37BD465DF8047B704700BF12
S214000DE00020044080B483B000AF7860054B5A6A98
S214000DF004497B6813434B6200BF0C37BD465DF861
S214000E00047B70470020044080B483B000AF064BDC
S214000E105B6A7B60044B9A697B68134018460C3704
S214000E20BD465DF8047B70470020044080B586B060
S214000E3000AF786000237B6100233B61204B1B786A
S214000E4083F00103DBB2002B01D01E4B33E003F02E
S214000E5089F8F86002E07B6901337B617B69002BCF
S214000E600ADC19497A6913469B001344DB000B44DD
S214000E701E331B78002BEED17B69012B02D1134B5E
S214000E803B6114E07B68002B0FD00F497A6913464C
S214000E909B001344DB000B441E3301221A707A6950
S214000EA07B681A6000233B6101E0094B3B61F868F0
S214000EB003F068F83B6918461837BD4680BD00BF8A
S214000EC0E2010020061000F0B0010020011000F042
S214000ED0041000F080B500AF264B1B78002B01D025
S214000EE0002345E00121244802F06CF90221234842
S214000EF002F0E4FB0120FFF7D3FE0346DAB2204BF4
S214000F001A7101211F4802F05DF91D4804F060FACD
S214000F101D49012004F01EFA40F2FF70FFF74EFF55
S214000F2040F2FF70FFF73AFF184B00229A601F202E
S214000F30FFF798FE1F20FFF777FE0120FFF752FF0E
S214000F402822002112480BF045F8124B00221A7096
S214000F50114B00221A70114B00221A60104B00220F
S214000F601A60104B00221A60024B01221A700023EE
S214000F70184680BDE201002000250A000500240076
S214000F8014000020A00914002000002000200440C7
S214000F90B0010020E0010020E1010020DC0100207B
S214000FA0E4010020E801002090B58FB000AFF860A3
S214000FB07A603B600B46FB7200233B63904B1B78CA
S214000FC083F00103DBB2002B01D08E4B7DE1FB6882
S214000FD0002B01D08C4B78E102F0C4FFF8628B49FD
S214000FE0FA6813469B001344DB000B441E331B7841
S214000FF083F00103DBB2002B04D0F86A02F0C2FFD4
S214001000834B62E17B68002B0BD13B68002B03D03F
S2140010103B68B96CF8689847F86A02F0B3FF00239B
S21400102053E1FFF7AFFE78637849FA6813469B00F2
S2140010301344DB000B4418333A681A607B68194681
S2140010404FF000024FF000034FF00004D40344EAD0
S2140010505144CB0313F5FA7044F100014FF47A7251
S2140010604FF000030AF0FEFD03460C4619462246E2
S214001070664CF86803469B000344DB0023440833B1
S214001080C3E90012FB7A012B29D17B684FF47A72F0
S21400109002FB03F15D48FA6813469B001344DB002D
S2140010A003440833D3E900341A4613461B019B1A3F
S2140010B05B00CB1A18465549FA6813469B00134442
S2140010C0DB000B44103318605049FA6813469B0047
S2140010D01344DB000B4414330F221A6013E04B4911
S2140010E0FA6813469B001344DB000B440833D3E92D
S2140010F00012464CF86803469B000344DB0023447A
S2140011000833C3E900124149FA6813469B001344AA
S214001110DB000B440833D3E90034591C44F10002C9
S2140011203A4CF86803469B000344DB002344C3E9BB
S21400113000123649FA6813469B001344DB000B4442
S2140011401C3301221A703149FA6813469B00134477
S214001150DB000B441F33FA7A1A702C49FA681346E0
S2140011609B001344DB000B442033BA6C1A60294BF7
S2140011701B78002B04D0F86A02F004FF0023A4E0DA
S214001180254B1B68B3F1FF3F04D0234B1B6801338C
S214001190214A1360214B1B7883F00103DBB2002B3E
S2140011A040D01F4A7B6B13600420FFF7F7FD1749FA
S2140011B0FA6813469B001344DB000B44D3E9003463
S2140011C0C7E906346FF064037B617B6919464FF00C
S2140011D00002D7E90634A24208BF994201D20B4664
S2140011E014463B617A6B3B69134419460120FFF7AE
S2140011F0BBFD0420FFF7F6FD084B01221A7057E0EE
S214001200E2010020061000F0021000F0B0010020FD
S214001210031000F0E0010020DC010020E1010020C6
S214001220D80100202B4B1B68012B41D12A49FA68B4
S21400123013469B001344DB000B441C3300221A7039
S2140012400420FFF7BBFD254B1B687A6BD31ABB62E5
S214001250B86A00F079F900F0DFFA3B6B002B09D191
S2140012601D49FA6813469B001344DB000B441C33ED
S21400127001221A703B6B01333B63786B00F0FEFA79
S214001280FFF780FD7863154B1B687A6BD31ABB6239
S2140012900120FFF75DFD0246104B1B68D31A7B62E8
S2140012A00F4B1B78002B03D0BA6A7B6A9A42C7D2D0
S2140012B0084B1B68002B04D0064B1B68013B054AF5
S2140012C01360F86A02F05EFE002318463C37BD46FF
S2140012D090BD00BFDC010020B0010020D801002036
S2140012E0E101002080B584B000AF78601A4B1B780F
S2140012F083F00103DBB2002B01D0184B28E07B689B
S214001300002B01D0164B23E002F02CFEF8601549A6
S2140013107A6813469B001344DB000B441E331B788D
S21400132083F00103DBB2002B04D0F86802F02AFE3B
S2140013300D4B0DE00B497A6813469B001344DB0007
S2140013400B441C3300221A70F86802F01BFE0023C0
S21400135018461037BD4680BDE2010020061000F09A
S214001360021000F0B0010020031000F02DE99048B4
S21400137086B000AF02F0F6FD7861184B1B684FF0A0
S2140013800004C7E90234FFF7FDFC03464FF00004F3
S214001390C7E9003400F0E8FA104B1B684FF0000471
S2140013A0D7E90212A24208BF9942E6D1786902F054
S2140013B0E9FDD7E902124FF0000B4FF0000C8C4607
S2140013C04FF0000BD7E900121BEB01034CEB0204B5
S2140013D0184621461837BD46BDE89088E40100202F
S2140013E090B583B000AF78607B6819464FF0000276
S2140013F04FF000034FF00004D40344EA5144CB03FB
S21400140013F5FA7044F100014FF47A724FF00003BE
S2140014100AF028FC03460C46184621460C37BD4603
S21400142090BDF0B482B000AFC7E90001D7E900561E
S2140014302B4634464FF000014FF00002620142EAAC
S214001440D36259010B4614465B1B64EB06044FF04F
S21400145000014FF00002A20042EA937299000B4688
S21400146014465B1944EB06044FF000014FF00002EF
S214001470E20042EA5372D9000B46144613F5804147
S21400148044F100024FF000034FF00004CB0B43EA98
S2140014904243D40B184621460837BD46F0BC704779
S2140014A080B586B000AF02F05DFD3861FFF7ACFC9A
S2140014B0F860FB6823F005031846FFF76FFCFB682F
S2140014C003F00403002B30D01C4B01221A70FFF7E8
S2140014D059FC78610420FFF771FC194B1B687A6988
S2140014E0D31ABB60B86800F02FF800F095F9786959
S2140014F000F0C4F9FFF746FC7861114B1B687A6967
S214001500D31ABB600120FFF723FC02460C4B1B6876
S214001510D31A7B600B4B1B78002B03D0BA687B6812
S2140015209A42D7D2054B00221A7000F01DFA38698D
S21400153002F028FD00BF1837BD4680BDE001002040
S214001540D8010020E1010020F0B587B000AF786038
S21400155000237B6156E1AF497A6913469B0013442A
S214001560DB000B441D3300221A70AA497A69134621
S2140015709B001344DB000B441C331B78002B00F04D
S2140015803E81A4497A6913469B001344DB000B4452
S214001590D3E900347A6811464FF00002A24208BF31
S2140015A099421AD29B497A6913469B001344DB0082
S2140015B00B44D3E900567B684FF0000429463246B8
S2140015C0C91A62EB0402934C786903469B000344F5
S2140015D0DB002344C3E9001211E18E497A69134601
S2140015E09B001344DB000B441F331B78002B0AD1EF
S2140015F088497A6913469B001344DB000B441C336E
S21400160000221A70E6E07B6819464FF00002814C13
S214001610786903469B000344DB002344D3E9005665
S2140016200B4614465B1B64EB0604C7E90234794993
S2140016307A6913469B001344DB000B440833D3E956
S214001640004574497A6913469B001344DB000B443B
S2140016500833D3E90023D7E902010AF003FBA41AF2
S21400166065EB030521462A466A4C786903469B00CB
S2140016700344DB002344C3E9001266497A69134633
S2140016809B001344DB000B4410331B68002B50DD1B
S21400169060497A6913469B001344DB000B441433FD
S2140016A019685C487A6913469B001344DB000344C0
S2140016B010331B68194457487A6913469B00134435
S2140016C0DB0003441433196052497A6913469B00C1
S2140016D01344DB000B4414331B681D2B7AD94D4989
S2140016E07A6913469B001344DB000B44D3E90034AD
S2140016F0591C44F10002474C786903469B0003449A
S214001700DB002344C3E9001242497A6913469B0072
S2140017101344DB000B4414331B68A3F11E013D4841
S2140017207A6913469B001344DB00034414331960A4
S21400173050E038497A6913469B001344DB000B449B
S2140017401433196833487A6913469B001344DB0048
S214001750034410331B68C91A2E487A6913469B0047
S2140017601344DB000344143319602A497A6913468C
S2140017709B001344DB000B4414331B681D2B29D934
S21400178024497A6913469B001344DB000B44D3E9D3
S214001790003413F1FF3144F1FF321E4C78690346E2
S2140017A09B000344DB002344C3E9001219497A690D
S2140017B013469B001344DB000B4414331B68A3F151
S2140017C01E0114487A6913469B001344DB00034449
S2140017D0143319600F497A6913469B001344DB00E3
S2140017E00B4418331B68002B09D00A497A69134644
S2140017F09B001344DB000B441D3301221A707B69E7
S21400180001337B617B69002B7FF7A5AE00BF1C37D9
S214001810BD46F0BDB001002090B583B000AF0023F8
S2140018207B6022E014497A6813469B001344DB0071
S2140018300B441D331B78002B14D00F497A681346CF
S2140018409B001344DB000B4418331C6878680A4975
S2140018507A6813469B001344DB000B4420331B6856
S2140018601946A0477B6801337B607B68002BD9DD77
S21400187000BF0C37BD4690BDB001002090B58BB0C0
S21400188000AF78604FF0FF334FF0FF34C7E90634FF
S21400189000237B6227E031497A6A13469B00134493
S2140018A0DB000B441C331B78002B19D02B497A6ABB
S2140018B013469B001344DB000B44D3E90012D7E920
S2140018C00634A24208BF99420AD224497A6A1346CD
S2140018D09B001344DB000B44D3E90034C7E906340D
S2140018E07B6A01337B627B6A002BD4DD1C4B0022B3
S2140018F01A70D7E90634B4F1FF3F08BFB3F1FF3FD3
S21400190027D0D7E90634C7E904346FF06403FB60D8
S214001910FB6819464FF00002D7E90434A24208BF1C
S214001920994201D20B461446C7E906340D4A7B6835
S21400193013600420FFF732FABA697B68134419462D
S2140019400120FFF711FA064B01221A700420FFF758
S21400195049FA00BF2C37BD4690BD00BFB00100203D
S214001960E1010020D801002080B500AFFFF74CFA57
S214001970034603F00103002B07D00120FFF70EFA01
S214001980034B1B680133024A136000BF80BD00BFD3
S214001990E401002080B400AF054B1B69044A23F025
S2140019A00403136130BF00BFBD465DF8047B70477B
S2140019B000ED00E080B584B000AF0023FB73002389
S2140019C0BB6002F0B1FA786000F06EF80346FB7078
S2140019D0FB78022B02D0FB78032B01D102F008FD26
S2140019E000F062F80346FB70FB78002B08D0FB780B
S2140019F0032B05D8FB78184600F076F80346FB73F1
S214001A000F4B9B68002B05D00D4B9B68FA7B10464E
S214001A109847B860BB6803F00103002BE0D1FB7B5E
S214001A20022B02D0FB7B032B01D102F0E8FC786886
S214001A3002F08AFAFB7B18461037BD4680BD00BF11
S214001A40EC01002080B582B000AF0346FB71FB7945
S214001A50012B02D9FB79032B04D940F2151110484B
S214001A6001F0E2F8FB79023B0E4AD35CFF2B04D16F
S214001A704FF48B710A4801F0D7F8FB79022B02D09D
S214001A80FB79032B07D1FB79023B064AD25C013275
S214001A90D1B2044AD15400BF0837BD4680BD00BF4E
S214001AA0B8C80000F801002080B483B000AF01235E
S214001AB0FB710C4B1B78002B07D10223FB71094BE3
S214001AC05B78002B01D10323FB71FB79032B01D933
S214001AD00323FB71FB7918460C37BD465DF8047B83
S214001AE0704700BFF801002080B584B000AF034601
S214001AF0FB710123FB73FB79002B02D0FB79042BCF
S214001B0004D940F28911214801F08EF8204B1B6859
S214001B10002B06D01E4B1B68FA79104698470346E2
S214001B20FB73FB7B83F00103DBB2002B01D00023A9
S214001B3027E0FB79013B032B18D801A252F823F0CB
S214001B40511B0000571B00005F1B0000671B0000B6
S214001B50FFF720FF0BE0002002F0E4FB07E0002088
S214001B6002F00AFC03E002F051FC00E000BF084B64
S214001B705B68002B04D0064B5B68FA7910469847E2
S214001B80FB7918461037BD4680BD00BFB8C80000B8
S214001B90EC01002080B483B000AF78607B68002240
S214001BA01A6000BF0C37BD465DF8047B7047000026
S214001BB080B582B000AF7860144B01221A707B6843
S214001BC0002B01D101F010F87B6800221A70104B30
S214001BD01A687B685A600F4B1A687B689A607B6845
S214001BE00D4ADA607B68B7221A617B680B4A5A6135
S214001BF000F0F6F900F0ECF9786800F04BFF7B682F
S214001C001B78002B0837BD4680BD00BFFA010020B8
S214001C1000F000004CF2000020C900009CC9000043
S214001C2080B400AF034B1B681846BD465DF8047BC6
S214001C30704700BFFC01002080B485B000AF0346AB
S214001C400A46FB711346BB710023FB73FB79162B08
S214001C5063D801A252F823F0B51C0000BB1C00009C
S214001C60C11C0000C11C0000C11C0000C71C0000F5
S214001C70CD1C0000CD1C0000CD1C0000D31C0000B5
S214001C80D91C0000DF1C0000E51C0000EB1C000057
S214001C90EB1C0000EB1C0000FD1C0000031D0000F8
S214001CA0091D00000F1D0000F11C0000F71C0000BD
S214001CB0151D00000123FB7330E00123FB732DE0AC
S214001CC00123FB732AE00123FB7327E00123FB7348
S214001CD024E00123FB7321E00123FB731EE00123B4
S214001CE0FB731BE00123FB7318E00123FB7315E075
S214001CF00123FB7312E00123FB730FE00123FB7348
S214001D000CE00123FB7309E00123FB7306E00123CB
S214001D10FB7303E00123FB7300E000BFFB7B184668
S214001D201437BD465DF8047B704700BF80B58EB0A3
S214001D3000AFF860B9607A600023FB627B68002B16
S214001D4001D100F051FF274B1B68002B08D17868A3
S214001D5000F04AF87B681B78002B01D0FB6A3DE058
S214001D60204B1B687968184600F042FA38637B6897
S214001D701B78002B01D0FB6A30E03B6B7A68F96871
S214001D80184605F013FB7B681B78002B17D1BB6841
S214001D90002B09D0BB681B7803F00103002B03D08F
S214001DA0012387F8373002E0002387F837303B6B93
S214001DB097F8372083F830203B6BFB620DE0094B29
S214001DC01B68184607F114031A46396B00F006FB29
S214001DD03B7D002B01D000F007FFFB6A1846383722
S214001DE0BD4680BD0002002080B588B004AF786094
S214001DF07B68002B01D100F0F7FE7B6800221A708A
S214001E005E4B1A687B685A605D4B1A687B689A60FE
S214001E107B685C4ADA607B6840F6B5021A617B68CC
S214001E20594A5A61786804F049F97B681B78002B98
S214001E3003D0786804F0CEF99DE0544B1B68002B65
S214001E4040F09580FFF7ECFEF8607B68B422F968F6
S214001E504F4800F053F902464C4B1A607B681B78DB
S214001E60002B03D0786804F0B5F984E0474B1B6874
S214001E7019467B6803934FF0FF33029300230193C8
S214001E80042300933423FA68424800F05FF97B6825
S214001E901B78002B03D0786804F09CF96BE03B4B72
S214001EA01B6803F124017B6803934FF0FF33029312
S214001EB000230193042300932823FA68364800F091
S214001EC045F97B681B78002B03D0786804F082F90C
S214001ED051E02E4B1B6803F16C017B6803934FF0B7
S214001EE0FF33029300230193042300933823FA68F8
S214001EF02A4800F02BF97B681B78002B03D0786803
S214001F0004F068F937E0214B1B6803F190017B6809
S214001F1003934FF0FF3302930023019304230093AF
S214001F200123FA681E4800F011F97B681B78002B25
S214001F3003D0786804F04EF91DE0144B1B6803F1DB
S214001F4048017B6803934FF0FF330293002301930D
S214001F50042300932423FA68124800F0F7F87B68FD
S214001F601B78002B03D0786804F034F903E0786817
S214001F7004F030F900BF1037BD4680BD00F0000009
S214001F804CF20000A8C90000B0CA00000002002001
S214001F9048CA00005CCA00006CCA00007CCA000088
S214001FA08CCA0000A0CA000080B584B000AF78607C
S214001FB001F0BAFFF860054A7B681360F86801F024
S214001FC0C3FF00BF1037BD4680BD00BF040200201F
S214001FD080B500AF0120FFF7E7FF00BF80BD00001F
S214001FE080B586B000AF3B461946064800F00CF8B0
S214001FF03B78002B01D000F0F7FD00BF1837BD4638
S21400200080BD00BF2800002080B584B000AF786097
S21400201039603B68002B01D100F0E6FD7B68002BA1
S21400202015D13B680A221A702F4B9A6A3B685A6091
S2140020302E4B9A6A3B689A603B682D4ADA603B688A
S21400204040F2B7221A613B682A4A5A61FEE701F05D
S2140020506BFFB860284B1B68FB601FE0FA687B6864
S2140020609A4218D1B86801F06FFF3B6815221A70C3
S2140020701D4B5A6D3B685A601C4B5A6D3B689A6004
S2140020803B681B4ADA603B6840F2BE221A613B6836
S214002090184A5A6124E0FB68DB68FB60FB68002B8B
S2140020A0DCD1154B1A687B68DA60134A7B681360CC
S2140020B0B86801F049FF3B6800221A700A4B1A689C
S2140020C03B685A60094B1A683B689A603B68084A46
S2140020D0DA603B6840F2C9221A613B68054A5A61D9
S2140020E01037BD4680BD00BF00F000004CF2000077
S2140020F0BCCA000034CB00009815002080B58AB01A
S21400210004AFF860B9607A603B60BB687B613B688F
S214002110002B01D100F068FD7B69002B01D10A4B32
S2140021207B613B6802930023019301230093042301
S2140021307A687969F86800F0F1F938613B69184601
S2140021401837BD4680BD00BF2800002080B58AB085
S21400215004AFF860B9607A603B607B687B61FB6ABD
S214002160002B01D100F040FDBB68002B15D1FB6AA7
S2140021700A221A70194B9A6AFB6A5A60184B9A6AB6
S214002180FB6A9A60FB6A174ADA60FB6A40F2124200
S2140021901A61FB6A144A5A61FEE77B69002B01D17B
S2140021A0124B7B61BB6800221A70BB680022DA61A2
S2140021B0BB6800221A62FB6A0393BB6A02937B6ABF
S2140021C001933B6A00933B687A69B968F86800F047
S2140021D0B9FA00BF1837BD4680BD00BF00F000004A
S2140021E04CF20000BCCA000040CB000028000020D3
S2140021F090B58BB004AF786039603B68002B01D196
S21400220000F0F2FC7B68002B15D13B680A221A709E
S2140022106E4B9A6A3B685A606D4B9A6A3B689A6046
S2140022203B686C4ADA603B6840F2D5421A613B680C
S214002230694A5A61FEE701F077FE78617B685B6960
S214002240B3F1FF3F1FD07B689A697B685B699A424F
S21400225019D3786901F078FE3B6818221A705B4B38
S2140022601A6E3B685A605A4B1A6E3B689A603B6817
S214002270584ADA603B684FF49C621A613B68564ADB
S2140022805A6100239DE07B689B695A1C7B689A61B3
S2140022907B681B69002B2DD07B681B69FB607B6805
S2140022A01B7803F00203002B02D1FB681B6805E0D5
S2140022B07B689B68043BFA6813441B687A68136162
S2140022C0786901F041FE3B6800221A703F4B1A689D
S2140022D03B685A603E4B1A683B689A603B683D4ACA
S2140022E0DA603B6840F2EF421A613B683A4A5A614C
S2140022F0FB6866E0786901F027FE00233B617B6897
S21400230059687B6898687B68DC687B681B7803F094
S2140023100103002B03D07B685B681B6900E0012388
S2140023203A680292002201920093234602463869D8
S21400233000F0F4F8F8603B681B78002B0CD001F036
S214002340F3FD78617B689B695A1E7B689A617869A1
S21400235001F0FAFD002334E07B68DB69002B2FD008
S2140023607B68DC697B6859687B681B6AFA687868F2
S214002370A0470346FB72FB7A012B21D001F0D4FD67
S21400238078617B689B695A1E7B689A61786901F060
S214002390DBFD3B681A221A700C4B9A6E3B685A603B
S2140023A00B4B9A6E3B689A603B680A4ADA603B6859
S2140023B040F219521A613B68074A5A61002300E04E
S2140023C0FB6818461C37BD4690BD00BF00F00000F5
S2140023D04CF20000BCCA000054CB000080B586B0AA
S2140023E000AFF860B9607A607B68002B01D100F01E
S2140023F0FBFBFB68002B15D17B680A221A70434B47
S2140024009A6A7B685A60424B9A6A7B689A607B68D5
S214002410404ADA607B6840F23B521A617B683E4A6B
S2140024205A61FEE7BB68002B15D17B680A221A703A
S214002430364B9A6A7B685A60354B9A6A7B689A6014
S2140024407B68344ADA607B6840F23C521A617B68EB
S214002450314A5A61FEE701F067FD7861FB689B69C7
S214002460002B18D1786901F06FFD7B6817221A706F
S214002470264BDA6D7B685A60254BDA6D7B689A606E
S2140024807B68244ADA607B6840F245521A617B68B2
S214002490214A5A6137E0FB689B695A1EFB689A61BD
S2140024A0786901F051FDFB681B7803F00203002BEE
S2140024B005D0FB689B68043BBA68134400E0BB6821
S2140024C03B6101F031FD7861FB681A693B691A606F
S2140024D0FB68BA681A61786901F036FD7B680022ED
S2140024E01A700A4B1A687B685A60094B1A687B6830
S2140024F09A607B68074ADA607B6840F255521A6138
S2140025007B68054A5A611837BD4680BD00F000005A
S2140025104CF20000BCCA000068CB000080B588B052
S21400252002AFF860B9607A603B607B68002B15D11B
S214002530BB6A08221A70374B1A6ABB6A5A60364B57
S2140025401A6ABB6A9A60BB6A344ADA60BB6A40F2AF
S214002550C6621A61BB6A324A5A61FEE73B68002BC4
S21400256005D03B685A1E3B681340002B02D03B68E0
S214002570002B01D1012300E00023002B15D1BB6AFC
S21400258008221A70234B1A6ABB6A5A60224B1A6AD0
S214002590BB6A9A60BB6A214ADA60BB6A40F2CA62CA
S2140025A01A61BB6A1E4A5A61FEE701F0BDFC7861FB
S2140025B0BB6A01937B6A00933B6A3A687968B8689D
S2140025C000F030F83861BB6A1B78002B19D07869A8
S2140025D001F0BAFCBB6A16221A700E4B9A6DBB6AE3
S2140025E05A600D4B9A6DBB6A9A60BB6A0B4ADA60FA
S2140025F0BB6A40F2D5621A61BB6A094A5A61002377
S21400260003E0786901F0A0FC3B6918461837BD4620
S21400261080BD00BF00F000004CF20000BCCA000005
S2140026207CCB000080B48BB000AFF860B9607A60F5
S2140026303B607B68002B01D07B6800E004233A688F
S214002640934238BF13467B62FB689B681A467B6AD8
S2140026505B421A40FB689B6819467B6A013B0B404D
S214002660002B01D07B6A00E0002313443B623A6AE9
S214002670BB681A443B685B421A40396ABB68194417
S2140026803B68013B0B40002B01D03B6800E0002379
S2140026901344FB61FB685B681A46FB689B68D31AA9
S2140026A00133BB61FB689B681A46FB699B1A7B611A
S2140026B0BA697B699A421ED23B6B002B04D07A69BA
S2140026C0BB69D21A3B6B1A607B6B16221A70194BC9
S2140026D09A6D7B6B5A60184B9A6D7B6B9A607B6B1E
S2140026E0164ADA607B6B4FF4E4621A617B6B144A1D
S2140026F05A61002318E0FA69FB689A607B6B002237
S2140027001A700C4B1A687B6B5A600B4B1A687B6B03
S2140027109A607B6B094ADA607B6B40F226721A611C
S2140027207B6B074A5A613B6A18462C37BD465DF8F4
S214002730047B704700F000004CF20000BCCA0000AA
S21400274094CB000090B593B004AFF860B9607A609F
S2140027503B603B68002B15D17B6D08221A70924BAC
S2140027601A6A7B6D5A60914B1A6A7B6D9A607B6D14
S2140027708F4ADA607B6D40F291721A617B6D8D4AEA
S2140027805A61FEE73B6DB3F1FF3F03D0FA6C3B6D39
S2140027909A4201D8012300E00023002B15D17B6D5F
S2140027A008221A70804B1A6A7B6D5A607F4B1A6A31
S2140027B07B6D9A607B6D7E4ADA607B6D40F2957227
S2140027C01A617B6D7B4A5A61FEE7BB6C002B08D012
S2140027D0BB6C5A1EBB6C1340002B02D1BB6C032B88
S2140027E002D8BB6C002B01D1012300E00023002B94
S2140027F015D17B6D08221A706B4B1A6A7B6D5A6076
S2140028006A4B1A6A7B6D9A607B6D694ADA607B6DEB
S21400281040F29A721A617B6D664A5A61FEE7BB6C9B
S214002820002B01D0BB6C00E00423FB61BB681B7867
S21400283003F00203002B10D03B6823F003033A6832
S21400284002F00302002A01D1002200E00422134411
S2140028503B633B6B04333B6304E03B68042B38BFAD
S21400286004233B63FB6C002B00F0DF80BB681B7807
S21400287003F00103002B02D1FB69BB6206E07B6814
S2140028801B69FA69934238BF1346BB62BB6A5A4259
S2140028903B6B1A40BB6A591E3B6B0B40002B01D0AA
S2140028A0BB6A00E000231344BB61BB69FA6C02FB01
S2140028B003F37B623A6BBB69D31A7A6A13447B6272
S2140028C0BB681B7803F00103002B11D07B681B69E3
S2140028D05A427B6A1A407B681B69591E7B6A0B400A
S2140028E0002B02D07B681B6900E0002313447B6248
S2140028F07B6D02930023019301230093BB6A7A6ADF
S2140029007968F868FFF70AFE78637B6D1B78002B02
S21400291040F0B380BB687A6B1A61BB681B7803F023
S2140029200203002B02D17B6B3B620EE03B6823F078
S21400293003033A6802F00302002A01D1002200E0F5
S214002940042213447A6B13443B620123FB623EE08D
S2140029503B6A796BBA690A441A60BB68DB69002B6C
S2140029602AD0BB68DC69BB681B6A7A6B7968B86872
S214002970A0470346BB75BB7D012B1DD07B6D1A227D
S2140029801A70094B9A6E7B6D5A60084B9A6E7B6D77
S2140029909A607B6D064ADA607B6D40F2D7721A61E8
S2140029A07B6D044A5A6169E000F000004CF20000BA
S2140029B0BCCA0000ACCB00003A6ABB6913443B6259
S2140029C07A6BBB6913447B63FB6A0133FB62FA6A6A
S2140029D0FB6C9A42BCD33B6A00221A60BB68DB6978
S2140029E0002B25D0BB68DC69BB681B6A7A6B7968EC
S2140029F0B868A0470346FB75FB7D012B18D07B6D9E
S214002A001A221A701F4B9A6E7B6D5A601E4B9A6E76
S214002A107B6D9A607B6D1D4ADA607B6D40F2E772D3
S214002A201A617B6D1A4A5A6128E0BB6800221A6157
S214002A30BB687A685A60BB683A6B9A60BB68FA698A
S214002A40DA60BB683A6D5A61BB6800229A617B6D9A
S214002A5000221A700B4B1A687B6D5A600A4B1A6874
S214002A607B6D9A607B6D094ADA607B6D40F2FA7284
S214002A701A617B6D064A5A6100E000BF3C37BD46CE
S214002A8090BD00BF00F000004CF20000BCCA000081
S214002A90ACCB000090B589B004AF78607B68002BA3
S214002AA001D100F0A1F87B6800221A70424B1A6828
S214002AB07B685A60414B1A687B689A607B68404A1C
S214002AC0DA607B68C4221A617B683E4A5A613E4BD4
S214002AD05B68002B6DD000210220FFF7ADF803469F
S214002AE0FB7300210320FFF7A7F803461A46FB7B7B
S214002AF01340FB7300210420FFF79EF803461A4696
S214002B00FB7B1340FB73FB7B012B14D07B680622F8
S214002B101A70294B9A697B685A60284B9A697B68B9
S214002B209A607B68264ADA607B68CA221A617B68EC
S214002B30244A5A61FEE7FFF773F8B8607B682C22D8
S214002B40B9682248FFF7DAFA0246214B1A607B681A
S214002B501B78002B28D11E4B1B68181D1A4B1B68B0
S214002B60194A5268796803910292019304230093EC
S214002B700823BA6801461748FFF7E8FA7B681B780F
S214002B80002B13D1124B1C687A6800211248FFF7FD
S214002B90CDF8A0627B681B78002B09D10C4B1B6814
S214002BA01846FEF7F7FF04E000BF02E000BF00E0B3
S214002BB000BF1437BD4690BD00F000004CF2000088
S214002BC0C8CB0000A0CC00003C00002050CC000089
S214002BD00802002064CC00007CCC000080B500AF6A
S214002BE000F016F800BF80BD80B400AFFEE700001E
S214002BF080B483B000AF7860044A7B68136000BF7F
S214002C000C37BD465DF8047B704700BF9C3500203E
S214002C1080B500AF034B00221A60FDF75FFB00BFD4
S214002C2080BD00BF9C35002080B483B000AF7860C4
S214002C303960FEE780B487B000AFF860B9607A60AC
S214002C40FB6803F10473DA00BB6813449B007B61E6
S214002C507B697A681A6000BF1C37BD465DF8047B46
S214002C60704780B485B000AF786039607B6803F148
S214002C700473DA003B6813449B00FB60FB681B6828
S214002C8018461437BD465DF8047B704780B582B0A1
S214002C9000AF78607B681F2B04D94FF49671054807
S214002CA0FFF7C2FF01227B6802FA03F318460837D3
S214002CB0BD4680BD98F4000080B500AF00BF12216D
S214002CC00348FFF7CEFF0346002BF8D100BF80BDB8
S214002CD004300E4080B500AFFFF7EEFF034B5B6895
S214002CE01B0C03F00303DBB2184680BD00300E4019
S214002CF080B584B000AF78600123FB607B68124A21
S214002D00934204D80023FB600023BB6008E07B6886
S214002D100E4A934202D80123BB6001E00223BB6047
S214002D20FA6810210A48FFF785FF094BD3F80031EF
S214002D3023F08072BB681B0605491343C1F80031B7
S214002D4000BF1037BD4680BD0048E8010090D003A4
S214002D5000400E4080B483B000AF054B1B687B601C
S214002D607B6818460C37BD465DF8047B704700BF8D
S214002D704400002080B582B000AFFDF7A5FC786067
S214002D80064BD3F800311B0A03F01F0301337A68A1
S214002D9002FB03F318460837BD4680BD00400E40D0
S214002DA080B582B000AF0F4800F084FB0346FB708E
S214002DB0FB78072B05D0092B07D1FDF785FC78603B
S214002DC00BE0FFF7C7FF786007E000237B6040F664
S214002DD0D8410548FFF728FF00BF7B68184608372C
S214002DE0BD4680BD06000E0064F5000080B584B0C8
S214002DF000AF78607B68002B1CD1204800F05AFB9F
S214002E000346FB7200BFFB7A013B072B28D801A2C2
S214002E1052F823F0432E0000612E0000612E0000C1
S214002E20512E0000612E0000612E0000492E000089
S214002E30592E000040F6F8411148FFF7F5FE002332
S214002E4017E00023FB6013E0FFF784FFF8600FE055
S214002E50FDF772FCF8600BE0FFF78CFFF86007E008
S214002E600023FB6040F60F510548FFF7DDFE00BF6C
S214002E70FB6818461037BD4680BD00BFB80032005C
S214002E8064F5000080B584B000AF78603960204BF0
S214002E905B6803F04073FB600023BB6012E01D4AD2
S214002EA0BB68DB0013441A793B68DBB29A4206D152
S214002EB0184ABB6852F833307A689A4206D9BB681B
S214002EC00133BB60BB68042BE9D900E000BFBB68D8
S214002ED0052B07D10323FB6040F616610E48FFF76B
S214002EE0A3FE05E00B4ABB68DB0013445B79FB607E
S214002EF0FB681B06FB60064B5B6823F040720449C8
S214002F00FB6813434B6000BF1037BD4680BD00BF53
S214002F1000000E40C8F5000064F5000080B582B0E1
S214002F2000AF0E4B1B6C002B14BF01230023FB715C
S214002F300A4B41F671321A64FDF7BCFB03460021CA
S214002F401846FFF79FFFFB79002B02D0034B0022A9
S214002F501A6400BF0837BD4680BD00BF00000E40A3
S214002F6080B582B000AF3B1D184602F07DFA7B7933
S214002F70012B02D83B79022B01D9012300E0002364
S214002F8003F00103DBB218460837BD4680BD0000DB
S214002F9080B584B000AF786039600C4B1B6C002B9A
S214002FA014BF01230023FB73084B41F671321A64E9
S214002FB039687868FFF766FFFB7B002B02D0034B6F
S214002FC000221A6400BF1037BD4680BD00000E40C8
S214002FD080B487B000AF78600F237B617B680333D3
S214002FE03B617B69FB60FA683B69934228BF1346E6
S214002FF0BB60BB681B07BB60BB6818461C37BD467A
S2140030005DF8047B7047000080B400AF044B5B6A39
S2140030101B0903F003031846BD465DF8047B7047A2
S21400302000400E4080B483B000AF7860074B5B6A08
S21400303023F030027B681B01044913434B6200BF38
S2140030400C37BD465DF8047B704700BF00400E405D
S21400305090B585B000AF78600023BB607B683F4AC0
S21400306093420BD03E4A934208D03E4A934205D044
S21400307040F616713C48FFF7D7FD00E000BF7868C1
S21400308000F018FA0346FB607B68344A93420CD083
S214003090334A934210D0334A934214D1334BD3F879
S2140030A0803003F00703FB6013E0304BD3F8843026
S2140030B003F00703FB600CE02C4BD3F8883003F0DA
S2140030C00703FB6005E040F645712748FFF7ACFDB7
S2140030D000BFFB68052B34D801A252F823F000BFCE
S2140030E03D310000F93000000131000019310000C8
S2140030F00931000011310000FDF740FBB86028E000
S214003100FDF74EFBB86024E0FDF741FBB86020E019
S214003110FDF734FBB8601CE0FDF7ACFA0446134B31
S214003120D3F800311B0E03F0010301331846FFF7F6
S214003130ADFD0346B4FBF3F3BB600AE00023BB60BF
S21400314007E00023BB6040F69D710748FFF76CFD63
S21400315000BFBB6818461437BD4690BD030020006C
S2140031600500240002001E0064F5000000400E402A
S21400317080B483B000AF78600A4BD3F8443103F0D4
S2140031800103002B08D100BF064BD3F840217B6813
S2140031901340002BF8D100E000BF0C37BD465DF8A9
S2140031A0047B704700400E4080B400AF00BFBD46B1
S2140031B05DF8047B704780B400AF00BFBD465DF885
S2140031C0047B704780B586B000AF78600B46FB7016
S2140031D000233B617B681B0A03F00F03013B092BAE
S2140031E032D801A252F823F0113200001D3200003E
S2140031F04932000049320000173200002332000036
S2140032002D32000049320000373200004332000001
S2140032101A4B7B611EE01A4B7B611BE0194B7B61EE
S21400322018E0194B7B6101233B6113E0174B7B6170
S21400323010233B610EE0164B7B614FF480333B61FD
S21400324008E0144B7B6105E041F2A1311248FFF71C
S214003250EBFC10E07B681B0B03F01F03FB603B6975
S214003260002B02D03869FFF783FFFB781A46F9680F
S2140032707869FFF7DFFC1837BD4680BD00400E407A
S214003280B0400E40C0400E40E0400E40E8400E40C9
S214003290F0400E4050410E4064F5000080B584B00A
S2140032A000AF78607B6803F47813B3F5A01F7DD079
S2140032B0B3F5A01F1AD8B3F5202F50D0B3F5202FA2
S2140032C008D8B3F5003F4ED0B3F5802F38D0002B8A
S2140032D032D0D8E0B3F5602F00F0C880B3F5801F79
S2140032E000F0C880B3F5402F4CD0CCE0B3F5001FFB
S2140032F000F08B80B3F5001F0AD8B3F5D01F00F09E
S2140033008980B3F5F01F4CD0B3F5B01F5CD0BAE09F
S214003310B3F5381F6AD0B3F5381F04D8B3F5101FBD
S21400332000F09F80AFE0B3F5401F00F08680B3F555
S214003330481F00F0A380A6E0FDF7C6F9F860AAE0F3
S214003340FDF7C2F9F860564BD3F80C311B0AC3F3ED
S21400335008030133FA68B2FBF3F3FB609BE0FDF76A
S214003360B3F9F86097E0FDF7AFF9F8604C4BD3F887
S21400337008311B0AC3F308030133FA68B2FBF3F300
S214003380FB6088E0FDF7A0F9F860454BD3F81431F0
S2140033901B0A03F01F030133FA68B2FBF3F3FB606A
S2140033A079E04048FFF754FEF86074E03E48FFF7C7
S2140033B04FFEF8603A4BD3F8303103F00303FA6857
S2140033C022FA03F3FB6066E03648FFF741FEF8603A
S2140033D0334BD3F8203103F00F031846FFF756FCA3
S2140033E00246FB68B3FBF2F3FB6054E02D48FFF7A0
S2140033F02FFEF8602A4BD3F820311B0903F0030395
S214003400FA6822FA03F3FB6045E02848FFF720FE3F
S214003410F86040E02548FFF71BFEF860204BD3F825
S21400342028311B0903F003031846FFF72FFC02465A
S214003430FB68B3FBF2F3FB602DE01C48FFF708FEC9
S214003440F860174BD3F828311B0A03F00303043344
S2140034501846FFF71BFC0246FB68B3FBF2F3FB6063
S21400346019E01148FFF7F4FDF86014E0FFF798FC48
S214003470F86010E0FFF76EFCF8600CE00020FFF745
S214003480B5FCF86007E00023FB6041F2C74108483E
S214003490FFF7CAFB00BFFB6818461037BD4680BD65
S2140034A000400E4002001E0005002400030020001D
S2140034B064F5000080B584B000AF78600123FB732C
S2140034C07B6803F00F03BB60BB68013B072B00F271
S2140034D0E48001A252F823F0F93400004F350000D2
S2140034E0993500009B360000EB35000035360000AD
S2140034F09B360000593600006E4BD3F8943003F02C
S2140035000703023B052B1ED801A252F823F000BF8A
S214003510353500002F350000293500003B3500000A
S21400352047350000413500000223FB730EE00323FD
S214003530FB730BE00423FB7308E00B23FB7305E02F
S2140035400C23FB7302E00523FB7300BFADE0594B71
S214003550D3F8803003F00703013B042B18D801A2F0
S21400356052F823F0793500007F35000091350000D1
S214003570853500008B3500000323FB730BE0022328
S214003580FB7308E00A23FB7305E00D23FB7302E0E0
S2140035900123FB7300BF88E0464BD3F8843003F06A
S2140035A00703013B042B1CD801A252F823F000BFEE
S2140035B0C5350000CB350000D7350000D1350000FA
S2140035C0DD3500000323FB730EE00223FB730BE0E4
S2140035D00A23FB7308E00623FB7305E00D23FB7349
S2140035E002E00123FB7300BF5FE0324BD3F8883064
S2140035F003F00703013B042B18D801A252F823F06E
S214003600153600001B3600002D360000213600005F
S214003610273600000323FB730BE00223FB7308E04E
S2140036200A23FB7305E00D23FB7302E00123FB7303
S21400363000BF3AE01F4B1B6F03F00103002B04D0C2
S214003640012B05D10923FB7305E00723FB7302E07A
S2140036500123FB7300BF28E0164BD3F85C3103F060
S2140036603003102B0CD0102B02D8002B05D010E006
S214003670202B08D0302B09D00BE00123FB730BE086
S2140036800723FB7308E00423FB7305E00823FB73A2
S21400369002E00123FB7300BF07E00023FB7341F643
S2140036A0EE010548FFF7C0FA00BFFB7B184610374F
S2140036B0BD4680BD00400E4064F5000080B58AB06F
S2140036C000AF78600B46FB7003237B62032387F80A
S2140036D023300023BB6100237B617B68112B19D14B
S2140036E0FB78042B03D1FDF727F878610BE0FB7815
S2140036F0052B08D100F09AF90246BD4B9A4202D932
S21400370000F094F978617B69002B03D0002178697A
S21400371000F0A6FE7B6803F00F033B613B69013BAC
S214003720072B00F2778101A252F823F04D370000F4
S214003730593800008B380000153A00006D3800003C
S21400374049390000153A000073390000FB78023B47
S2140037500A2B49D801A252F823F000BF893700008F
S21400376095370000A1370000B3370000E9370000A6
S214003770E9370000E9370000E9370000DD370000D0
S214003780C5370000D137000004237B62002387F88A
S21400379023302FE003237B62012387F8233029E0C0
S2140037A002237B62022387F823309248FFF7A0FAB1
S2140037B020E001237B62032387F823308D48FFF740
S2140037C097FA17E005237B62032387F8233011E07E
S2140037D007237B62062387F823300BE041F6AF1100
S2140037E08548FFF721FA1BE141F6B4118248FFF73E
S2140037F01BFA15E197F82330062B06D097F82330EE
S21400380001220121184600F01DF9FFF787FBFFF79C
S214003810CBFC7B69002B01D0FFF74EFA774A7B6A18
S21400382053677748FFF73AFD03461846FFF760FAF6
S214003830FCF720FFF860FFF74DFA03461946F868D4
S214003840FFF7A6FB7B69002B03D10121002000F0C7
S21400385007FEFFF7B0FCE3E06A4BBB61FB78062B84
S21400386004D141F6F0116448FFF7DEF9BB69002B7E
S21400387001D0BB6900E0644BBB61FB78062B04D12A
S21400388041F604215C48FFF7CFF9BB69002B01D055
S214003890BB6900E05D4BBB61FB78013B0C2B49D854
S2140038A001A252F823F000BFDD380000E338000024
S2140038B0F3380000353900003539000003390000C0
S2140038C03539000035390000353900001F39000051
S2140038D03539000035390000253900000023FB612A
S2140038E02EE001220121002000F0ACF80223FB614B
S2140038F026E001220121012000F0A4F80123FB614B
S2140039001EE0FCF7B7FE03461846FFF7F1F9012262
S21400391002213F48FFF78EF90323FB6110E00423E2
S214003920FB610DE001220121072000F08BF8052342
S214003930FB6105E041F630212F48FFF775F96FE08F
S214003940BB69FA691A606BE0FB78072B02D0092B7B
S21400395004D007E0294B00221A6709E0274B012212
S2140039601A6705E041F6BA212348FFF75DF957E0EC
S21400397056E0FB78013B072B28D801A252F823F02B
S214003980A1390000CD390000CD390000B73900005C
S214003990CD390000CD390000A7390000C739000036
S2140039A00023FB6118E001220121042000F04AF800
S2140039B00123FB6110E001220121022000F042F801
S2140039C00223FB6108E00323FB6105E041F61831A2
S2140039D00948FFF729F923E0084BD3F85C3123F0B8
S2140039E03002FB691B0105491343C1F85C3117E03F
S2140039F0002D31010148E80164F5000000400E404A
S214003A0000250A0080400E4088400E4084400E404C
S214003A10B0400E4041F6EF310348FFF705F900BF0E
S214003A202837BD4680BD00BF64F5000080B400AFF7
S214003A30034B1B681846BD465DF8047B704700BF05
S214003A401000002080B588B000AF0346FB710B461F
S214003A50BB7113467B71FB79072B5BD801A252F82A
S214003A6023F000BFCD3A0000BB3A0000973A0000B2
S214003A70853A0000A93A0000153B0000153B0000FF
S214003A80E33A000001237B6102233B610123FB61D3
S214003A900023BB6144E004237B6108233B610323CE
S214003AA0FB610223BB613BE010237B6120233B616B
S214003AB00523FB610423BB6132E040237B61802346
S214003AC03B610723FB610623BB6129E04FF480734B
S214003AD07B614FF400733B610923FB610823BB61E4
S214003AE01EE0FFF73DFA034683F00103DBB2002B2E
S214003AF005D041F6E7714E48FFF796F8F9E74FF420
S214003B0080437B614FF400433B610F23FB610E2330
S214003B10BB6105E041F6F5714548FFF785F883E09F
S214003B20BB79002B64D00023FB73FB79022B1AD1E0
S214003B30FFF76AFA0346002B15D13E4BDB6B03F406
S214003B408063002B04D142F204013948FFF76CF879
S214003B500123FB73384B5B6A03F00103012B02D190
S214003B600120FFF75FFA344A7B69136600BFB96924
S214003B703248FFF776F80346002BF8D07B79002B07
S214003B8052D000BFF9692D48FFF76BF80346002BAB
S214003B90F8D0FB79022B47D1FB7B002B44D0264B79
S214003BA05B6A03F00103012B05D1012220210220CC
S214003BB000F088F903E00021022000F029F9022035
S214003BC000F03EF8B860012200210220FFF73AFF1D
S214003BD0B968022000F072F8174A7B69136600BFC6
S214003BE0F9691648FFF73DF80346002BF8D01BE0AE
S214003BF0114A3B69136600BF0F4BD3F89030012182
S214003C00BA6901FA02F21340002BF5D17B79002B3A
S214003C100AD000BF084BD3F890300121FA6901FAA8
S214003C2002F21340002BF5D12037BD4680BD00BF01
S214003C3064F5000000300E4000400E4090400E40FC
S214003C4080B584B000AF0346FB71FB79013B032BC4
S214003C5023D801A252F823F0693C00008D3C0000F6
S214003C60753C0000813C0000124B1B6AC3F308033E
S214003C70FB601AE00F4B1B6903F07F03FB6014E048
S214003C800C4B9B6903F07F03FB600EE0094BD3F8F7
S214003C909C30C3F30A03FB6007E00023FB6042F29C
S214003CA081010548FEF7C0FF00BFFB6818461037C5
S214003CB0BD4680BD00400E4064F5000080B584B06F
S214003CC000AF03463960FB71FB79013B032B00F222
S214003CD08C8001A252F823F0E93C00009D3D0000D4
S214003CE0293D0000633D00003B68B3F5007F04D328
S214003CF042F2A7014248FEF797FF3B68C3F308036A
S214003D003B6000BF1A213F48FEF7ABFF0346002B7F
S214003D10F8D13D4B1B6A23F4FF7323F001033A49A5
S214003D203A6813430B6266E03B687F2B04D942F285
S214003D30B4013348FEF778FF3B6803F07F033B602F
S214003D4000BF18212F48FEF78CFF0346002BF8D142
S214003D502D4B1B6923F07F022B493B6813430B61F5
S214003D6049E03B687F2B04D942F2CF012448FEF796
S214003D705BFF3B6803F07F033B6000BF19212148CF
S214003D80FEF76FFF0346002BF8D11F4B9B6923F00D
S214003D907F021D493B6813438B612CE01A4BD3F816
S214003DA0903003F00403002B04D042F2DE011448E6
S214003DB0FEF73AFF144B5B6A23F03003124A43F0D7
S214003DC0100353623B68DB0903F00F031846FFF746
S214003DD0FFF8F8600C4B1A6B0C4B13403A681A430A
S214003DE00949FB6813430B6305E042F2F8010448F7
S214003DF0FEF71AFF00BF00BF1037BD4680BD00BFEC
S214003E0064F5000040410E4000400E4000F8FF0FF1
S214003E1080B584B000AF03460A46FB711346BB71FB
S214003E20FB79022B04D042F210112348FEF7FCFE69
S214003E30FFF7EAF80346002B03D14FF44003FB607C
S214003E401BE0BB79202B04D0302B0AD0002B04D0EB
S214003E500BE04FF40003FB600FE04FF44003FB6001
S214003E600BE04FF44003FB6007E0144BFB6042F2AC
S214003E702B111148FEF7D8FE00BF00BF104BD3F839
S214003E809020FB681340FA689A42F7D1FB6803F467
S214003E908003002B0AD00A4BD3F8A03003F48063CB
S214003EA0002B14BF01230023DBB200E001231846D9
S214003EB01037BD4680BD00BF64F50000FFF3E17F0C
S214003EC000400E4080B582B000AF0346FB710B4643
S214003ED0BB7113467B71FB79022B15D1BB79002B86
S214003EE007D00F4B4FF48062C3F8A8200C4ABB796A
S214003EF053667B79002B0DD0BA79FB7911461846AC
S214003F00FFF786FF034607E042F261110548FEF719
S214003F108BFE00E000BF012318460837BD4680BD73
S214003F2000400E4064F5000080B483B000AFEFF3AD
S214003F3010833B603B687B6072B67B6818460C3724
S214003F40BD465DF8047B704780B483B000AF7860F0
S214003F507B68002B00D162B600BF0C37BD465DF80B
S214003F60047B704780B483B000AFEFF310833B60F0
S214003F703B687B6072B67B6818460C37BD465DF8BA
S214003F80047B704780B483B000AF78607B68002BFA
S214003F9000D162B600BF0C37BD465DF8047B7047A3
S214003FA080B500AFFCF766FB00BF80BD80B487B06D
S214003FB000AFF860B9607A60FB6803F10473DA005A
S214003FC0BB6813449B007B617B697A681A6000BFFC
S214003FD01C37BD465DF8047B704780B485B000AFE3
S214003FE0786039607B6803F10473DA003B68134439
S214003FF09B00FB60FB681B6818461437BD465DF8DF
S214004000047B704780B500AF00BF12210348FFF75E
S214004010E4FF0346002BF8D100BF80BD04300E40FD
S21400402080B500AFFFF7EEFF034B5B681B0C03F099
S2140040300303DBB2184680BD00300E4080B483B068
S21400404000AF7860044A7B68D36200BF0C37BD4679
S2140040505DF8047B704700BF00300E4080B400AFB0
S214004060034B5B6A1846BD465DF8047B704700BF8D
S21400407000300E4080B400AF044B4AF6E8529A6017
S21400408000BFBD465DF8047B704700BF00300E40A1
S21400409080B400AF034B00225A6300BFBD465DF8F4
S2140040A0047B704700300E4080B400AF044B4AF6E5
S2140040B0E8525A6300BFBD465DF8047B704700BFF8
S2140040C000300E4080B400AF044B0022C3F88021BD
S2140040D000BFBD465DF8047B704700BF00400E4041
S2140040E080B400AF044B45F60E02C3F8802100BF33
S2140040F0BD465DF8047B704700400E4080B483B038
S21400410000AF0346FB71FB79C3F10203102202FAEB
S21400411003F318460C37BD465DF8047B7047000075
S21400412090B585B000AF0346FB71FB79002B1BD121
S214004130484BD3F89030484A13601120FFF7BAF97D
S21400414003461A46454B1A70FFF75CFF444B5B6804
S2140041501B0CDBB203F00303DAB2424B1A703D4B82
S2140041601B69414A136070E03E4B1B783C4C184676
S214004170FFF7C4FF03462361364BD3F8803103F0C4
S2140041800103FB60FFF7ACFF0023BB60324B1B68EC
S21400419003F00103BA681343BB602F4B1B6803F0A0
S2140041A01003BA681343BB602B4B1B6803F0400335
S2140041B0BA681343BB60284B1B6803F00403BA6855
S2140041C01343BB60244B1B6803F48073BA68134325
S2140041D0BB60204ABB681366FFF714FF204B1B68C2
S2140041E003F01003002B18D000BF1A4BD3F8403151
S2140041F003F08073002BF8D1164A1B4B1B68136123
S214004200164B1B78052B08D1184B1C68FFF708FFC8
S214004210034619462046FEF7BBFE104B1B78052BBF
S21400422005D00E4B1B7819461120FFF747FA0A4BAC
S2140042301B6803F00103002B02D1064B02221A660C
S214004240FB68002B01D0FFF73DFF00BF1437BD46CB
S21400425090BD00BF00400E40180200201C02002047
S21400426000300E401D02002020020020100000201A
S21400427080B582B000AFFFF7C5FE104B1B681B0A67
S21400428003F003037B600D4B5B681B0C03F003031A
S2140042903B607A683B689A4206D9084B1B68074A17
S2140042A043F01003136005E0044B1B68034A23F039
S2140042B01003136000BF0837BD4680BD00300E40B7
S2140042C080B483B000AF0C4B1B6803F01003002BC8
S2140042D00BD00A4B1B691B0C03F01F037B607B682B
S2140042E0082B02D1064B074A1A6000BF0C37BD46A2
S2140042F05DF8047B704700BF00300E4000400E4063
S21400430010000020C0EA210180B400AF00BFBD4607
S2140043105DF8047B704780B400AF00BFBD465DF813
S214004320047B704780B582B000AF0346FB71FB7913
S214004330002B02D00020FFF7F3FEFFF799FF0D4B8E
S2140043401B690C4A43F004031361FFF7DDFF30BF1F
S214004350FFF7E1FFFB79002B03D00120FFF7E0FE1B
S21400436003E0FFF7ADFFFFF71BFE00BF0837BD46B3
S21400437080BD00BF00ED00E080B584B000AF03460E
S214004380FB71FB79002B02D00020FFF7C9FEFFF778
S2140043906FFF154BD3F8803103F00103FB60FFF786
S2140043A09FFE114B4FF420721A66FB68002B01D05B
S2140043B0FFF788FE0D4B1B690C4A43F0040313619C
S2140043C0FFF7A2FF30BFFFF7A6FFFB79002B03D055
S2140043D00120FFF7A5FE03E0FFF772FFFFF7E0FD01
S2140043E000BF1037BD4680BD00400E4000ED00E027
S2140043F080B500AF0020FFF793FE00BF80BD80B5FC
S21400440000AF0120FFF78CFE00BF80BD80B584B0F2
S21400441000AF124B9B6923F4403343F40033BB6078
S2140044200E4B9B6943F440337B60FFF723FE00236B
S214004430FB6008E0094ABB689361084A7B689361A1
S214004440FB680133FB60FB68032BF3DD034ABB68A4
S214004450936100BF1037BD4680BD00BF00300E40E0
S21400446080B584B000AF78600B46FB70154BD3F870
S21400447000311B0A03F01F030133BB607B68002B6F
S21400448007D1FCF721F90246BB6802FB03F3FB6089
S21400449001E07B68FB600C4B1B78002B09D0FB68A7
S2140044A00A4A934205D8FB781946022000F010F815
S2140044B004E0FB781946002000F00AF800BF103729
S2140044C0BD4680BD00400E4014020020FF2C310186
S2140044D090B587B000AF03460A46FB711346BB7122
S2140044E01F4BD3F800311B0A03F01F0301337B6117
S2140044F0FCF7EAF83861FFF793FD0346FB73FA7B97
S214004500FB799A4228D03B697A6902FB03F3BB60C9
S214004510FB79022B0CD1BB68124A934204D94FF4A4
S2140045209F611148FEF780FB02213869FEF730FDD7
S2140045300E4CFB791846FFF7E1FD03462361BB7975
S214004540002B01D0FFF75EFDFB79002B05D1002183
S2140045503869FEF71DFD00E000BF1C37BD4690BD64
S21400456000400E40002D3101F0F5000000300E40F6
S21400457080B400AF01231846BD465DF8047B704743
S21400458080B582B000AF0C4BDB6E0B4A43F08073F5
S214004590D36600210948FFF720FD78607B68002B72
S2140045A003D0042000F03EFD02E0002000F03AFDBB
S2140045B000BF0837BD4680BD00300E404C300E4070
S2140045C080B58AB000AF01237B627B6A1B053B6225
S2140045D0404BDB6C1B0A03F00F03FB613E4B1B8852
S2140045E01A463D4B1B8828335B08134403F1280109
S2140045F0FB695A1C13469B001344B1FBF3F3013BC3
S214004600BB61BB697B6107233B613A697B69934267
S21400461028BF1346BB61BB691B06BB61BB6923F0A1
S214004620E063002B04D040F213712C48FEF7FCFA2E
S2140046303B6A23F4E003002B04D040F214712748B1
S214004640FEF7F2FA234BDB6C23F0EE62B9693B6AA5
S2140046500B4320491343CB64214BB3F90030002BA6
S21400466033DB1F4BB3F90030FB81FA89FB89283313
S2140046705B08134403F12802FB6901335900FB6908
S21400468001335B080B44B2FBF3F3BB60BB687B6093
S21400469007233B603A687B68934228BF1346BB609B
S2140046A0BB681B01BB60BB6823F07003002B04D003
S2140046B040F22C710948FEF7B7FA064B1B6D23F043
S2140046C070020449BB6813430B6500BF2837BD461C
S2140046D080BD00BF00300E400C020020F0F5000048
S2140046E01002002080B483B000AF78600B467B8059
S2140046F07B689AB2054B1A80054A7B88138000BFF8
S2140047000C37BD465DF8047B704700BF0C020020E6
S2140047101002002080B582B000AF0346FB71FB7923
S214004720002B02D0012B04D007E0094B094A9A65FA
S21400473009E0074B084A9A6505E04FF4EB61074825
S214004740FEF772FA00BF00BF0837BD4680BD00BF47
S21400475000300E4077402057372110B7F0F50000A4
S21400476080B584B000AF0346FB710B46BB711346A1
S2140047707B71334BD3F88031FB60BB79032B1DD89C
S21400478001A252F823F000BF99470000A14700009D
S214004790AB470000B5470000FB68DBB2FB6014E0E7
S2140047A0FB681B0ADBB2FB600FE0FB681B0CDBB28E
S2140047B0FB600AE0FB681B0EFB6006E040F29C71A3
S2140047C02048FEF731FA002336E07B79002B16D11D
S2140047D0FB681B03FB60FB6823F47043002B06D0CA
S2140047E040F2A7711748FEF71FFA002324E0164B85
S2140047F0DB6E23F470421449FB681343CB667B7967
S214004800012B18D1FB681B03FB60FB6823F4704385
S214004810002B06D040F2B3710A48FEF705FA0023D3
S2140048200AE0094BD3F8E03023F470420649FB68EF
S2140048301343C1F8E030012318461037BD4680BD4B
S214004840B081E00FF0F5000000300E4080B588B073
S21400485000AFF860B96011461A460B46FB71134666
S214004860BB710023FB610023BB61BB791B02FA7995
S214004870002A01D0012200E0002213437B617B69FD
S21400488040F2011293422AD0B3F5817F07D2012B62
S21400489019D0012B47D3B3F5807F50D073E040F298
S2140048A00122934227D040F20122934203D8B3F567
S2140048B0007F50D067E0B3F5407F58D040F2013219
S2140048C0934224D05FE0384BD3F87431FB61FB6928
S2140048D01B0ADBB2BB61FB69DBB2FB6159E0324B02
S2140048E0D3F87431FB61FB691B0EBB61FB691B0CC3
S2140048F0DBB2FB614DE02C4BD3F87831FB61FB69F2
S2140049001B0ADBB2BB61FB69DBB2FB6141E0264BF5
S214004910D3F87831FB61FB691B0EBB61FB691B0C8E
S214004920DBB2FB6135E0204BD3F86C31FB61FB69F1
S2140049301B0ADBB2BB61FB69DBB2FB6129E01A4BE9
S214004940D3F86C31FB61FB691B0EBB61FB691B0C6A
S214004950DBB2FB611DE0144BD3F87031FB61FB69E1
S2140049601B0ADBB2BB61FB69DBB2FB6111E00E4BDD
S214004970D3F87031FB61FB691B0EBB61FB691B0C36
S214004980DBB2FB6105E040F618010848FEF74CF97B
S21400499000BFFB68FA691A60BB68BA691A6000BF94
S2140049A02037BD4680BD00BFB081E00FF0F50000A7
S2140049B080B584B000AF0346FB713E4B5B6B012BAA
S2140049C00CBF01230023FB73FFF76EFB00BF394BC0
S2140049D09B6F03F00103002BF9D1364B1B6C03F0E1
S2140049E00303BB60BB68002B04D001220D213248B4
S2140049F0FFF7DCFABB68DBB2FA799A4208D1FB799A
S214004A00002B53D100220D212B48FFF7CFFA4DE0A3
S214004A10BB68032B02D0BB68002B20D1FB79022B8E
S214004A2002D0FB79012B1AD14FF40020FFF706FBCA
S214004A3000BF204B9B6F03F00103002BF9D11D4BE9
S214004A401B6C23F003031B4A43F00103136400BFEF
S214004A50FFF704FB034603F40023002BF8D000BF47
S214004A60144B9B6F03F00103002BF9D1114B1B6C09
S214004A7023F00302FB790F4913430B6400BF0D4B71
S214004A809B6F03F00103002BF9D1FB79002B14BFB9
S214004A9001230023DBB21A460D210748FFF786FAEA
S214004AA0FB7B002B03D0FFF7F3FA00E000BF1037C4
S214004AB0BD4680BD00300E4054300E4080B584B0F8
S214004AC000AF7860FFF754FD7B681B89C82B04D9BC
S214004AD040F6C4015F48FEF7A7F87B689A887B68B3
S214004AE01B899A4204D940F6C5015A48FEF79CF83D
S214004AF07B68B3F90C30C82B04DD40F6C601554878
S214004B00FEF792F87B685B78012B09D17B689B885F
S214004B10C82B12D940F6CA014E48FEF785F80CE0BD
S214004B207B685B78022B08D17B689B880A2B04D9AC
S214004B3040F6CF014748FEF777F87B68DB8842F2FD
S214004B401072934204D940F6D7014248FEF76CF83B
S214004B507B68DB884A2B02D80023FB6015E07B6865
S214004B60DB88B3F5FA7F03D24FF08053FB600CE08E
S214004B707B68DB8840F6C312934203D84FF000539D
S214004B80FB6002E04FF04053FB60334BDB6C23F0DE
S214004B90405323F001037A68B2F90C20002A01DBA7
S214004BA0012100E00021FA680A432B491343CB6435
S214004BB0294BD3F8E030284A43F44073C2F8E0307B
S214004BC0FFF7DEFC7B681B891A467B68B3F90C305E
S214004BD019461046FFF786FD7B689A881F4B1A8099
S214004BE07B689B88184600F0A9F97B689B7B184673
S214004BF0FFF790FD7B685B8801220121184600F0D4
S214004C0031F8034683F00103DBB2002B06D040F6F2
S214004C100E111048FEF708F8002317E00E4BDB6B6A
S214004C200D4A43F48063D3637B685B781846FFF7CE
S214004C30BFFE7B689B7A202B01D1012300E0002376
S214004C401A4605210648FFF7B1F901231846103722
S214004C50BD4680BDF0F5000000300E400E0200207C
S214004C603C300E4090B595B000AF78600B46FB70B8
S214004C701346BB700023FB6400237B6407F1240308
S214004C8000221A605A609A6007F1180300221A6020
S214004C905A609A6007F10C0300221A605A609A6004
S214004CA007F1080300210A461A800A469A707B68B4
S214004CB0B3F5E16F06D37B6840F6B832934201D86D
S214004CC0012300E0002387F8433097F8433003F0D1
S214004CD0010387F8433097F8433083F00103DBB2D3
S214004CE0002B06D040F653119148FDF79DFF002398
S214004CF019E17B68B3F5E16F8CBF0123002387F8C9
S214004D00423097F84230002B0AD04FF4E163FB6440
S214004D1040F6B8337B647A6CFB6CD31ABB6409E04C
S214004D204FF49663FB644FF4E1637B647A6CFB6C30
S214004D30D31ABB6497F84230002B0BD07D4BD3F8C8
S214004D4068313B623B6A1B0E7B613B6A1B0CDBB225
S214004D503B620AE0774BD3F868313B623B6A1B0A3A
S214004D60DBB27B613B6ADBB23B62734BDB6C1B0FD7
S214004D70DBB203F00303DBB23B723B7A97F84220C8
S214004D8007F10C0107F11800FFF760FD6A4BD3F836
S214004D90E0301B0ADBB203F00303DBB27B727C7AE3
S214004DA097F8422007F10C03191D07F11803181D88
S214004DB02346FFF74BFD7A68FB6CD31A79693A6A8B
S214004DC08A1A02FB03F2BB6CB2FBF3F3FB62FA6ACD
S214004DD03B6A1344FB627A68FB6CD31AF968BA69BB
S214004DE08A1A02FB03F2BB6CB2FBF3F37B627A6AAD
S214004DF0BB6913447B627A68FB6CD31A3969FA691B
S214004E008A1A02FB03F2BB6CB2FBF3F3BB62BA6A0C
S214004E10FB691344BB62FA6A7B699A4213D8FA6A42
S214004E203B6A9A420FD3BA6A3B699A420BD8BA6A6F
S214004E30FB699A4207D37A6AFB689A4203D87A6A71
S214004E40BB699A4206D240F6A1113948FDF7ECFE3E
S214004E50002368E0BB78002B12D0374BDB6D23F4C1
S214004E60FE4323F00203FA6A1202134397F8422025
S214004E70002A01D0022200E000222F491343CB650E
S214004E80FB78002B4ED0397A97F84230002218462D
S214004E90FFF766FC034683F00103DBB2002B06D067
S214004EA04FF41B612248FDF7BFFE00233BE0797AF2
S214004EB097F8423001221846FFF752FC034683F06B
S214004EC00103DBB2002B06D040F6B8111848FDF7F8
S214004ED0ABFE002327E07B6AFB63BB6ABB63BA6B4F
S214004EE0FB6B934238BF13467B627B6A7B63E72388
S214004EF03B633A6B7B6B934228BF13467B620E4B39
S214004F005B6E23F4FF7323F001037A6A52001343A7
S214004F1097F84220002A01D0012200E0002206492C
S214004F2013434B66012318465437BD4690BD00BF59
S214004F30F0F50000B081E00F00300E4080B584B080
S214004F4000AF78600023FB60344B1B6F03F0070351
S214004F50BB60324BDB6C03F00103002B14D0BB6844
S214004F60012B11D97B68132B02D80423FB603DE08C
S214004F707B68132B05D97B68272B02D80823FB6098
S214004F8034E01023FB6031E0244BDB6C03F00103BC
S214004F90002B14D1BB68012B11D87B68092B02D8D3
S214004FA00423FB6022E07B68092B05D97B68132B62
S214004FB002D80823FB6019E01023FB6016E0174BAD
S214004FC0DB6C03F00103002B0BD0BB68012B08D869
S214004FD07B68272B02D80823FB6007E01023FB60C2
S214004FE004E040F6F6110E48FDF71EFEFB68013B96
S214004FF0FB60FB681A02FB681B031343FB60074B4E
S214005000DB6C23F47F420549FB681343CB64FFF750
S214005010D7FA00BF1037BD4680BD00BF00300E4037
S214005020F0F5000080B584B000AF0346FB710021A8
S2140050301148FEF7D2FFF860FB68002B02D1FB791F
S214005040012B07D9FB68002B04D140F615210B482D
S214005050FDF7EAFD0A4B1B6F23F00702FB790849B0
S21400506013430B67074B1B881846FFF767FF00BF05
S2140050701037BD4680BD00BF4C300E40F0F5000036
S21400508000300E400E02002080B485B000AF78607D
S21400509039607B6803F1C063FB60FB683A681A609E
S2140050A000BF1437BD465DF8047B704780B485B0FA
S2140050B000AF786039607B6803F18063FB60FB6853
S2140050C03A681A6000BF1437BD465DF8047B704727
S2140050D080B582B000AF03463960FB71FB79002BC8
S2140050E01DD0FB79012B17D0FB79022B11D0FB7951
S2140050F0032B0BD0FB79042B06D0FB79052B01D1B3
S214005100FF230DE000230BE0002309E04FF47E436D
S21400511006E04FF47C6303E04FF4784300E03F235F
S2140051203A68134103F00103002B04D140F2DD314D
S2140051300C48FDF779FDFA7913465B0013441B0112
S2140051400C3303F1804303F5204301213A6801FA4A
S21400515002F211461846FFF7A9FF00BF0837BD4602
S21400516080BD00BF54F6000080B582B000AF034695
S2140051703960FB71FB79002B1DD0FB79012B17D012
S214005180FB79022B11D0FB79032B0BD0FB79042B78
S21400519006D0FB79052B01D1FF230DE000230BE0A1
S2140051A0002309E04FF47E4306E04FF47C6303E0FF
S2140051B04FF4784300E03F233A68134103F00103BD
S2140051C0002B04D140F20C410C48FDF72DFDFA7976
S2140051D013465B0013441B010C3303F1804303F5B5
S2140051E0204301213A6801FA02F211461846FFF7F9
S2140051F04BFF00BF0837BD4680BD00BF54F6000019
S21400520080B584B000AFB9607B600346FB7313467D
S214005210BB73FB7B002B1DD0FB7B012B17D0FB7BCE
S214005220022B11D0FB7B032B0BD0FB7B042B06D071
S214005230FB7B052B01D1FF230DE000230BE00023B1
S21400524009E04FF47E4306E04FF47C6303E04FF43E
S214005250784300E03F23BA68134103F00103002BB4
S21400526004D14FF48E713948FDF7DEFCBB7B002B72
S2140052700DD07B68002B05D0FB7BB9681846FFF77E
S21400528073FF04E0FB7BB9681846FFF721FFBB6895
S214005290072B20D82E49FA7B13465B0013441B01CC
S2140052A00B4404331A68BB689B000F2101FA03F312
S2140052B0DB431340B97BBA68920001FA02F211464A
S2140052C02348FA7B194313465B0013441B0103442F
S2140052D00433196025E01E49FA7B13465B0013442D
S2140052E01B010B4408331A68BB6803F18043083B74
S2140052F09B000F2101FA03F3DB4302EA0301BA7BAA
S214005300BB6803F18043083B9B0002FA03F3104896
S214005310FA7B194313465B0013441B01034408330E
S2140053201960BB7B002B0DD17B68002B05D0FB7B67
S214005330B9681846FFF718FF04E0FB7BB968184603
S214005340FFF7C6FE00BF1037BD4680BDB8F60000AA
S21400535000A0004080B582B000AF786039607B68FE
S214005360022B03D952211848FDF75EFC3B685B7997
S2140053701F2B03D957211448FDF756FC3B681B78B2
S2140053801A463B685B789B001A433B689B789B01F8
S2140053901A433B68DB781B011A433B681B79DB0228
S2140053A01A433B685B791B031A433B689B795B0493
S2140053B006491A437B6804331B010B441A6000BF7E
S2140053C00837BD4680BD00BF1CF700000020044023
S2140053D080B483B000AF78607B681B78002B01D068
S2140053E0012200E000227B685B78002B01D00423BA
S2140053F000E0002313437A689278002A01D0102236
S21400540000E0002213437A68D278002A01D02022D6
S21400541000E000221A437B681B791B021A437B6854
S2140054205B791B0313437A689279002A02D04FF403
S214005430004200E000221A437B68DB791B0413431A
S2140054407A68127A002A02D04FF4003200E0002276
S214005450044913430B6000BF0C37BD465DF8047B60
S214005460704700BF0020044080B584B000AF78606D
S2140054707B68002B03D147211B48FDF7D5FB1B4B50
S2140054805B69DBB29B00DBB203F03C03FB73174B9C
S2140054901B699B09DBB203F00303DAB2FB7B134301
S2140054A0FB737B68FA7B9A70104B1B69DBB203F0C8
S2140054B03F03DAB27B685A700C4B9B691B09DBB260
S2140054C01B01FB73094BDB691B09DBB203F00F03FF
S2140054D0DAB2FB7B1343FB737B68FA7B1A7000BF60
S2140054E01037BD4680BD00BF80F70000D0FF0FE03C
S2140054F080B483B000AF78600B46FB70FB7863F037
S2140055007F03DBB21A467B689A6500BF0C37BD4640
S2140055105DF8047B7047000080B586B000AFF86089
S214005520B9607A60FB707B68002B04D140F22B11C7
S2140055304448FDF779FBBB68002B03D14248FDF7D2
S214005540ADFEB860FB78202B16D0202B02DC002B9B
S21400555005D03BE0402B1CD0602B2AD036E0BB6841
S2140055601B097A689A4204D940F25D113548FDF766
S2140055705BFB10237B612FE0BB68DB087A689A42EE
S21400558004D94FF4B1712F48FDF74EFB08237B6119
S21400559022E0BB682D4AA2FB03239B087A689A4246
S2140055A004D940F267112748FDF73EFB06237B61CE
S2140055B012E0BB689B087A689A4204D94FF4B67129
S2140055C02048FDF731FB04237B6105E04FF4B971F9
S2140055D01C48FDF729FB32E0BB685A017B697968F5
S2140055E001FB03F35B0813443B617B697A6802FBAB
S2140055F003F33A69B2FBF3F33B613B69203B3B6143
S2140056003B69DB003B613B69114A934204D94FF486
S214005610C4710C48FDF708FB3A690D4B13403B611B
S214005620FB681B6823F06002FB681A60FB681A6858
S214005630FB781A43FB681A60FB683A695A611837A8
S214005640BD4680BDE8F7000040410500ABAAAAAA07
S214005650F8FF7F0080B584B000AF78600B46FB7023
S2140056607B68114A93420CD07B68104A934208D05C
S2140056707B680F4A934204D040F2A7210D48FDF7FD
S214005680D3FAFB78DB43FB60FB6803F00503FB60A3
S214005690FB685A007B68DA60FA787B68DA6000BFDD
S2140056A01037BD4680BD00BF000001400004014029
S2140056B000080140E8F7000080B582B000AF7860CF
S2140056C039607B68334A93420CD07B68324A9342F7
S2140056D008D07B68314A934204D04FF43671304884
S2140056E0FDF7A2FA786800F05DF83B689B7C002B1B
S2140056F005D07B681B6843F080427B681A603B6875
S214005700DB7C002B05D03B681B7D19467868FFF7CD
S214005710EFFE3B685B7B1A463B681B8A13433A687E
S214005720D2891A437B685A603B6859683B689A6816
S2140057303B681B7B7868FFF7EFFE3B685B7D002BC2
S21400574005D07B681B6843F480327B681A603B6830
S2140057509B7D1B0703F0E0423B68DB7D1B0503F4E3
S214005760E0031A437B681A667B685B6F23F030029F
S2140057707B685A677B685B6F3A68127E1A437B6861
S2140057805A673B681B781A467B68DA6000BF0837A2
S214005790BD4680BD000001400004014000080140F5
S2140057A0E8F7000080B582B000AF78607B68284AD2
S2140057B093420CD07B68274A934208D07B68264ADF
S2140057C0934204D040F207412448FDF72DFA7B6847
S2140057D040F6AA62DA607B6800221A607B6841F2B3
S2140057E005025A607B6800229A607B6800225A6134
S2140057F07B680022DA647B68194A9A647B68002218
S2140058001A667B6800225A677B6800229A677B6864
S2140058100022DA677B680E4A934207D07B680D4AFF
S214005820934203D07B680C4A934202D17B680022E5
S2140058301A657B6800229A657B68064A934202D105
S2140058407B680022DA6500BF0837BD4680BD00BF12
S214005850000001400004014000080140E8F7000095
S214005860F9FF010080B483B000AF786000BF7B68AA
S2140058701B6903F08003002BF9D07B68DB69DBB281
S21400588018460C37BD465DF8047B704780B483B07D
S21400589000AF78600B46FB7000BF7B681B6903F0A7
S2140058A04003002BF9D0FA787B685A6300BF0C37A8
S2140058B0BD465DF8047B704780B400AF00BFBD46B0
